{
  "contractName": "Hospital",
  "abi": [
    {
      "anonymous": false,
      "inputs": [
        {
          "indexed": false,
          "internalType": "uint256",
          "name": "id",
          "type": "uint256"
        },
        {
          "indexed": false,
          "internalType": "address",
          "name": "doctorAddress",
          "type": "address"
        },
        {
          "indexed": false,
          "internalType": "string",
          "name": "name",
          "type": "string"
        },
        {
          "indexed": false,
          "internalType": "string",
          "name": "designation",
          "type": "string"
        }
      ],
      "name": "AddDoctor",
      "type": "event"
    },
    {
      "anonymous": false,
      "inputs": [
        {
          "indexed": false,
          "internalType": "uint256",
          "name": "id",
          "type": "uint256"
        },
        {
          "indexed": false,
          "internalType": "address",
          "name": "patientAddress",
          "type": "address"
        },
        {
          "indexed": false,
          "internalType": "string",
          "name": "name",
          "type": "string"
        },
        {
          "indexed": false,
          "internalType": "uint256",
          "name": "age",
          "type": "uint256"
        },
        {
          "indexed": false,
          "internalType": "uint256",
          "name": "contact",
          "type": "uint256"
        },
        {
          "indexed": false,
          "internalType": "string",
          "name": "userAddress",
          "type": "string"
        }
      ],
      "name": "AddPatient",
      "type": "event"
    },
    {
      "anonymous": false,
      "inputs": [
        {
          "indexed": false,
          "internalType": "uint256",
          "name": "prescriptionid",
          "type": "uint256"
        },
        {
          "indexed": false,
          "internalType": "address",
          "name": "healthCareAddress",
          "type": "address"
        },
        {
          "indexed": false,
          "internalType": "string",
          "name": "drugname",
          "type": "string"
        },
        {
          "indexed": false,
          "internalType": "uint256",
          "name": "timestamp",
          "type": "uint256"
        }
      ],
      "name": "AddPrescription",
      "type": "event"
    },
    {
      "anonymous": false,
      "inputs": [
        {
          "indexed": false,
          "internalType": "uint256",
          "name": "receiptid",
          "type": "uint256"
        },
        {
          "indexed": false,
          "internalType": "address",
          "name": "doctorAddress",
          "type": "address"
        },
        {
          "indexed": false,
          "internalType": "string",
          "name": "drugname",
          "type": "string"
        },
        {
          "indexed": false,
          "internalType": "uint256",
          "name": "timestamp",
          "type": "uint256"
        },
        {
          "indexed": false,
          "internalType": "uint256",
          "name": "totalcost",
          "type": "uint256"
        },
        {
          "indexed": false,
          "internalType": "uint256",
          "name": "receiptNumber",
          "type": "uint256"
        },
        {
          "indexed": false,
          "internalType": "uint256",
          "name": "drugCount",
          "type": "uint256"
        }
      ],
      "name": "AddReceipt",
      "type": "event"
    },
    {
      "anonymous": false,
      "inputs": [
        {
          "indexed": false,
          "internalType": "uint256",
          "name": "recordid",
          "type": "uint256"
        },
        {
          "indexed": false,
          "internalType": "string",
          "name": "disease",
          "type": "string"
        },
        {
          "indexed": false,
          "internalType": "address",
          "name": "doctorAddress",
          "type": "address"
        },
        {
          "indexed": false,
          "internalType": "uint256",
          "name": "timestamp",
          "type": "uint256"
        }
      ],
      "name": "AddRecord",
      "type": "event"
    },
    {
      "anonymous": false,
      "inputs": [
        {
          "indexed": false,
          "internalType": "string",
          "name": "description",
          "type": "string"
        }
      ],
      "name": "PatientExists",
      "type": "event"
    },
    {
      "inputs": [],
      "name": "doctorCount",
      "outputs": [
        {
          "internalType": "uint256",
          "name": "",
          "type": "uint256"
        }
      ],
      "stateMutability": "view",
      "type": "function"
    },
    {
      "inputs": [
        {
          "internalType": "address",
          "name": "",
          "type": "address"
        }
      ],
      "name": "doctorExists",
      "outputs": [
        {
          "internalType": "bool",
          "name": "",
          "type": "bool"
        }
      ],
      "stateMutability": "view",
      "type": "function"
    },
    {
      "inputs": [
        {
          "internalType": "uint256",
          "name": "",
          "type": "uint256"
        }
      ],
      "name": "doctors",
      "outputs": [
        {
          "internalType": "address",
          "name": "doctorAddress",
          "type": "address"
        },
        {
          "internalType": "string",
          "name": "name",
          "type": "string"
        },
        {
          "internalType": "string",
          "name": "designation",
          "type": "string"
        },
        {
          "internalType": "uint256",
          "name": "recordCount",
          "type": "uint256"
        }
      ],
      "stateMutability": "view",
      "type": "function"
    },
    {
      "inputs": [
        {
          "internalType": "uint256",
          "name": "",
          "type": "uint256"
        }
      ],
      "name": "doctorsList",
      "outputs": [
        {
          "internalType": "uint256",
          "name": "",
          "type": "uint256"
        }
      ],
      "stateMutability": "view",
      "type": "function"
    },
    {
      "inputs": [],
      "name": "patientCount",
      "outputs": [
        {
          "internalType": "uint256",
          "name": "",
          "type": "uint256"
        }
      ],
      "stateMutability": "view",
      "type": "function"
    },
    {
      "inputs": [
        {
          "internalType": "uint256",
          "name": "",
          "type": "uint256"
        }
      ],
      "name": "patients",
      "outputs": [
        {
          "internalType": "address",
          "name": "patientAddress",
          "type": "address"
        },
        {
          "internalType": "string",
          "name": "name",
          "type": "string"
        },
        {
          "internalType": "uint256",
          "name": "age",
          "type": "uint256"
        },
        {
          "internalType": "uint256",
          "name": "contact",
          "type": "uint256"
        },
        {
          "internalType": "string",
          "name": "userAddress",
          "type": "string"
        },
        {
          "internalType": "uint256",
          "name": "prescriptionCount",
          "type": "uint256"
        },
        {
          "internalType": "uint256",
          "name": "receiptCount",
          "type": "uint256"
        },
        {
          "internalType": "uint256",
          "name": "recordCount",
          "type": "uint256"
        }
      ],
      "stateMutability": "view",
      "type": "function"
    },
    {
      "inputs": [
        {
          "internalType": "uint256",
          "name": "",
          "type": "uint256"
        }
      ],
      "name": "patientsList",
      "outputs": [
        {
          "internalType": "uint256",
          "name": "",
          "type": "uint256"
        }
      ],
      "stateMutability": "view",
      "type": "function"
    },
    {
      "inputs": [
        {
          "internalType": "address",
          "name": "_doctorAddress",
          "type": "address"
        },
        {
          "internalType": "string",
          "name": "_name",
          "type": "string"
        },
        {
          "internalType": "string",
          "name": "_designation",
          "type": "string"
        }
      ],
      "name": "setDoctor",
      "outputs": [],
      "stateMutability": "nonpayable",
      "type": "function"
    },
    {
      "inputs": [
        {
          "internalType": "address",
          "name": "_patientAddress",
          "type": "address"
        },
        {
          "internalType": "string",
          "name": "_name",
          "type": "string"
        },
        {
          "internalType": "uint256",
          "name": "_age",
          "type": "uint256"
        },
        {
          "internalType": "uint256",
          "name": "_contact",
          "type": "uint256"
        },
        {
          "internalType": "string",
          "name": "_userAddress",
          "type": "string"
        }
      ],
      "name": "setPatient",
      "outputs": [],
      "stateMutability": "nonpayable",
      "type": "function"
    },
    {
      "inputs": [],
      "name": "getPatientCount",
      "outputs": [
        {
          "internalType": "uint256",
          "name": "",
          "type": "uint256"
        }
      ],
      "stateMutability": "view",
      "type": "function"
    },
    {
      "inputs": [],
      "name": "getDoctorCount",
      "outputs": [
        {
          "internalType": "uint256",
          "name": "",
          "type": "uint256"
        }
      ],
      "stateMutability": "view",
      "type": "function"
    },
    {
      "inputs": [
        {
          "internalType": "address",
          "name": "_address",
          "type": "address"
        }
      ],
      "name": "getPatientfromAddress",
      "outputs": [
        {
          "internalType": "address",
          "name": "",
          "type": "address"
        },
        {
          "internalType": "string",
          "name": "",
          "type": "string"
        },
        {
          "internalType": "uint256",
          "name": "",
          "type": "uint256"
        },
        {
          "internalType": "uint256",
          "name": "",
          "type": "uint256"
        },
        {
          "internalType": "string",
          "name": "",
          "type": "string"
        }
      ],
      "stateMutability": "view",
      "type": "function"
    },
    {
      "inputs": [
        {
          "internalType": "address",
          "name": "_patientAddress",
          "type": "address"
        }
      ],
      "name": "getCount",
      "outputs": [
        {
          "internalType": "uint256",
          "name": "",
          "type": "uint256"
        },
        {
          "internalType": "uint256",
          "name": "",
          "type": "uint256"
        },
        {
          "internalType": "uint256",
          "name": "",
          "type": "uint256"
        }
      ],
      "stateMutability": "view",
      "type": "function"
    },
    {
      "inputs": [
        {
          "internalType": "address",
          "name": "_patientAddress",
          "type": "address"
        },
        {
          "internalType": "uint256",
          "name": "_index",
          "type": "uint256"
        }
      ],
      "name": "getPrescriptionfromAddress",
      "outputs": [
        {
          "internalType": "uint256",
          "name": "",
          "type": "uint256"
        },
        {
          "internalType": "address",
          "name": "",
          "type": "address"
        },
        {
          "internalType": "uint256",
          "name": "",
          "type": "uint256"
        },
        {
          "internalType": "uint256",
          "name": "",
          "type": "uint256"
        },
        {
          "internalType": "string",
          "name": "",
          "type": "string"
        }
      ],
      "stateMutability": "view",
      "type": "function"
    },
    {
      "inputs": [
        {
          "internalType": "address",
          "name": "_patientAddress",
          "type": "address"
        },
        {
          "internalType": "uint256",
          "name": "_index",
          "type": "uint256"
        }
      ],
      "name": "getReceiptfromAddress",
      "outputs": [
        {
          "internalType": "uint256",
          "name": "",
          "type": "uint256"
        },
        {
          "internalType": "address",
          "name": "",
          "type": "address"
        },
        {
          "internalType": "uint256",
          "name": "",
          "type": "uint256"
        },
        {
          "internalType": "uint256",
          "name": "",
          "type": "uint256"
        },
        {
          "internalType": "string",
          "name": "",
          "type": "string"
        },
        {
          "internalType": "uint256",
          "name": "",
          "type": "uint256"
        },
        {
          "internalType": "uint256",
          "name": "",
          "type": "uint256"
        }
      ],
      "stateMutability": "view",
      "type": "function"
    },
    {
      "inputs": [
        {
          "internalType": "uint256",
          "name": "_patientid",
          "type": "uint256"
        },
        {
          "internalType": "string",
          "name": "_disease",
          "type": "string"
        },
        {
          "internalType": "address",
          "name": "_doctorAddress",
          "type": "address"
        }
      ],
      "name": "setDiagnosisfromID",
      "outputs": [],
      "stateMutability": "nonpayable",
      "type": "function"
    },
    {
      "inputs": [
        {
          "internalType": "address",
          "name": "_patientAddress",
          "type": "address"
        },
        {
          "internalType": "uint256",
          "name": "_index",
          "type": "uint256"
        }
      ],
      "name": "getDiagosisfromAddress",
      "outputs": [
        {
          "internalType": "string",
          "name": "",
          "type": "string"
        },
        {
          "internalType": "uint256",
          "name": "",
          "type": "uint256"
        },
        {
          "internalType": "uint256",
          "name": "",
          "type": "uint256"
        },
        {
          "internalType": "string",
          "name": "",
          "type": "string"
        },
        {
          "internalType": "address",
          "name": "",
          "type": "address"
        },
        {
          "internalType": "uint256",
          "name": "",
          "type": "uint256"
        }
      ],
      "stateMutability": "view",
      "type": "function"
    },
    {
      "inputs": [
        {
          "internalType": "address",
          "name": "_patientAddress",
          "type": "address"
        },
        {
          "internalType": "address",
          "name": "_doctorAddress",
          "type": "address"
        },
        {
          "internalType": "string",
          "name": "_drugname",
          "type": "string"
        },
        {
          "internalType": "uint256",
          "name": "_totalcost",
          "type": "uint256"
        },
        {
          "internalType": "uint256",
          "name": "_drugCount",
          "type": "uint256"
        },
        {
          "internalType": "uint256",
          "name": "_receiptNumber",
          "type": "uint256"
        }
      ],
      "name": "setReceiptfromAddress",
      "outputs": [],
      "stateMutability": "nonpayable",
      "type": "function"
    },
    {
      "inputs": [
        {
          "internalType": "address",
          "name": "_patientAddress",
          "type": "address"
        },
        {
          "internalType": "address",
          "name": "_healthCareAddress",
          "type": "address"
        },
        {
          "internalType": "string",
          "name": "_drugname",
          "type": "string"
        },
        {
          "internalType": "uint256",
          "name": "_drugCount",
          "type": "uint256"
        }
      ],
      "name": "setPrescriptionfromAddress",
      "outputs": [],
      "stateMutability": "nonpayable",
      "type": "function"
    }
  ],
  "bytecode": "0x608060405234801561001057600080fd5b50612cbb806100206000396000f3fe608060405234801561001057600080fd5b50600436106101215760003560e01c806379111c1c116100ad578063a9d7b0ce11610071578063a9d7b0ce14610355578063bd30bb561461038b578063c190665b146103bf578063c3d0f01f146103dd578063dc65bef4146103f957610121565b806379111c1c1461029157806388bfc3fd146102af57806393119a83146102e45780639ba5e8521461031b578063a0303c411461033757610121565b80634f0cd27b116100f45780634f0cd27b146101aa57806369a6dcb0146101dc5780636efb1b8414610210578063709898c01461024357806378522bc41461027357610121565b8063146504e4146101265780631b91da61146101425780632ad230a91461015e5780634aaf797c1461018e575b600080fd5b610140600480360381019061013b919061210c565b610429565b005b61015c600480360381019061015791906121ad565b610643565b005b61017860048036038101906101739190612068565b610892565b6040516101859190612605565b60405180910390f35b6101a860048036038101906101a39190612091565b6108b2565b005b6101c460048036038101906101bf9190612068565b610ae0565b6040516101d3939291906129aa565b60405180910390f35b6101f660048036038101906101f191906122d3565b610b61565b60405161020795949392919061288e565b60405180910390f35b61022a6004803603810190610225919061230f565b610e4d565b60405161023a94939291906124c5565b60405180910390f35b61025d6004803603810190610258919061230f565b610fad565b60405161026a91906126ef565b60405180910390f35b61027b610fd1565b60405161028891906126ef565b60405180910390f35b610299610fd7565b6040516102a691906126ef565b60405180910390f35b6102c960048036038101906102c491906122d3565b610fe1565b6040516102db96959493929190612620565b60405180910390f35b6102fe60048036038101906102f9919061230f565b61132a565b604051610312989796959493929190612579565b60405180910390f35b61033560048036038101906103309190612338565b6114a2565b005b61033f611632565b60405161034c91906126ef565b60405180910390f35b61036f600480360381019061036a91906122d3565b611638565b60405161038297969594939291906128e8565b60405180910390f35b6103a560048036038101906103a09190612068565b6119ed565b6040516103b6959493929190612518565b60405180910390f35b6103c7611bb5565b6040516103d491906126ef565b60405180910390f35b6103f760048036038101906103f2919061222c565b611bbe565b005b610413600480360381019061040e919061230f565b611e39565b60405161042091906126ef565b60405180910390f35b6000600360008873ffffffffffffffffffffffffffffffffffffffff1673ffffffffffffffffffffffffffffffffffffffff168152602001908152602001600020549050600060016000838152602001908152602001600020905061048c611e5d565b60006001836006015461049f9190612a5e565b90508082600001818152505088826020019073ffffffffffffffffffffffffffffffffffffffff16908173ffffffffffffffffffffffffffffffffffffffff16815250504282604001818152505086826060018181525050878260800181905250858260a0018181525050848260c001818152505082600a018290806001815401808255809150506001900390600052602060002090600702016000909190919091506000820151816000015560208201518160010160006101000a81548173ffffffffffffffffffffffffffffffffffffffff021916908373ffffffffffffffffffffffffffffffffffffffff160217905550604082015181600201556060820151816003015560808201518160040190805190602001906105c3929190611eb0565b5060a0820151816005015560c0820151816006015550508260060160008154809291906105ef90612b70565b91905055507f5c47e3634659924d623877bfdf79d51d583d2a4ac998ef7934c4236e04e3c0ac818a8a428b8a8c60405161062f9796959493929190612818565b60405180910390a150505050505050505050565b600560008473ffffffffffffffffffffffffffffffffffffffff1673ffffffffffffffffffffffffffffffffffffffff16815260200190815260200160002060009054906101000a900460ff16156106d0576040517f08c379a00000000000000000000000000000000000000000000000000000000081526004016106c79061268f565b60405180910390fd5b600060016008546106e19190612a5e565b90506000600260008381526020019081526020016000209050848160000160006101000a81548173ffffffffffffffffffffffffffffffffffffffff021916908373ffffffffffffffffffffffffffffffffffffffff16021790555083816001019080519060200190610755929190611eb0565b508281600201908051906020019061076e929190611eb0565b50600854600460008773ffffffffffffffffffffffffffffffffffffffff1673ffffffffffffffffffffffffffffffffffffffff168152602001908152602001600020819055506001600560008773ffffffffffffffffffffffffffffffffffffffff1673ffffffffffffffffffffffffffffffffffffffff16815260200190815260200160002060006101000a81548160ff02191690831515021790555060078290806001815401808255809150506001900390600052602060002001600090919091909150556008600081548092919061084990612b70565b91905055507f58959303cecd7aace99ab31e95891822aaa6362696004978f89a9b208b5b241982868686604051610883949392919061270a565b60405180910390a15050505050565b60056020528060005260406000206000915054906101000a900460ff1681565b6000600360008673ffffffffffffffffffffffffffffffffffffffff1673ffffffffffffffffffffffffffffffffffffffff168152602001908152602001600020549050600081141561093a576040517f08c379a0000000000000000000000000000000000000000000000000000000008152600401610931906126af565b60405180910390fd5b6000600160008381526020019081526020016000209050610959611f36565b60006001836005015461096c9190612a5e565b90508082600001818152505086826020019073ffffffffffffffffffffffffffffffffffffffff16908173ffffffffffffffffffffffffffffffffffffffff16815250504282604001818152505085826060018190525084826080018181525050826008018290806001815401808255809150506001900390600052602060002090600502016000909190919091506000820151816000015560208201518160010160006101000a81548173ffffffffffffffffffffffffffffffffffffffff021916908373ffffffffffffffffffffffffffffffffffffffff160217905550604082015181600201556060820151816003019080519060200190610a72929190611eb0565b50608082015181600401555050826005016000815480929190610a9490612b70565b91905055507fc47a68b8995e71914372db76d656dbc5969ec2ea295e6e490a2ab88fad00878481888842604051610ace949392919061275d565b60405180910390a15050505050505050565b60008060008060009050600360008673ffffffffffffffffffffffffffffffffffffffff1673ffffffffffffffffffffffffffffffffffffffff168152602001908152602001600020549050600060016000838152602001908152602001600020905080600701548160050154826006015494509450945050509193909250565b60008060008060606000600360008973ffffffffffffffffffffffffffffffffffffffff1673ffffffffffffffffffffffffffffffffffffffff168152602001908152602001600020549050600160008281526020019081526020016000206008018781548110610bfb577f4e487b7100000000000000000000000000000000000000000000000000000000600052603260045260246000fd5b906000526020600020906005020160000154600160008381526020019081526020016000206008018881548110610c5b577f4e487b7100000000000000000000000000000000000000000000000000000000600052603260045260246000fd5b906000526020600020906005020160010160009054906101000a900473ffffffffffffffffffffffffffffffffffffffff16600160008481526020019081526020016000206008018981548110610cdb577f4e487b7100000000000000000000000000000000000000000000000000000000600052603260045260246000fd5b906000526020600020906005020160020154600160008581526020019081526020016000206008018a81548110610d3b577f4e487b7100000000000000000000000000000000000000000000000000000000600052603260045260246000fd5b906000526020600020906005020160040154600160008681526020019081526020016000206008018b81548110610d9b577f4e487b7100000000000000000000000000000000000000000000000000000000600052603260045260246000fd5b9060005260206000209060050201600301808054610db890612b3e565b80601f0160208091040260200160405190810160405280929190818152602001828054610de490612b3e565b8015610e315780601f10610e0657610100808354040283529160200191610e31565b820191906000526020600020905b815481529060010190602001808311610e1457829003601f168201915b5050505050905095509550955095509550509295509295909350565b60026020528060005260406000206000915090508060000160009054906101000a900473ffffffffffffffffffffffffffffffffffffffff1690806001018054610e9690612b3e565b80601f0160208091040260200160405190810160405280929190818152602001828054610ec290612b3e565b8015610f0f5780601f10610ee457610100808354040283529160200191610f0f565b820191906000526020600020905b815481529060010190602001808311610ef257829003601f168201915b505050505090806002018054610f2490612b3e565b80601f0160208091040260200160405190810160405280929190818152602001828054610f5090612b3e565b8015610f9d5780601f10610f7257610100808354040283529160200191610f9d565b820191906000526020600020905b815481529060010190602001808311610f8057829003601f168201915b5050505050908060030154905084565b60078181548110610fbd57600080fd5b906000526020600020016000915090505481565b60085481565b6000600854905090565b606060008060606000806000600360008a73ffffffffffffffffffffffffffffffffffffffff1673ffffffffffffffffffffffffffffffffffffffff168152602001908152602001600020549050600160008281526020019081526020016000206001016001600083815260200190815260200160002060020154600160008481526020019081526020016000206009018a815481106110aa577f4e487b7100000000000000000000000000000000000000000000000000000000600052603260045260246000fd5b906000526020600020906004020160000154600160008581526020019081526020016000206009018b8154811061110a577f4e487b7100000000000000000000000000000000000000000000000000000000600052603260045260246000fd5b9060005260206000209060040201600101600160008681526020019081526020016000206009018c81548110611169577f4e487b7100000000000000000000000000000000000000000000000000000000600052603260045260246000fd5b906000526020600020906004020160020160009054906101000a900473ffffffffffffffffffffffffffffffffffffffff16600160008781526020019081526020016000206009018d815481106111e9577f4e487b7100000000000000000000000000000000000000000000000000000000600052603260045260246000fd5b90600052602060002090600402016003015485805461120790612b3e565b80601f016020809104026020016040519081016040528092919081815260200182805461123390612b3e565b80156112805780601f1061125557610100808354040283529160200191611280565b820191906000526020600020905b81548152906001019060200180831161126357829003601f168201915b5050505050955082805461129390612b3e565b80601f01602080910402602001604051908101604052809291908181526020018280546112bf90612b3e565b801561130c5780601f106112e15761010080835404028352916020019161130c565b820191906000526020600020905b8154815290600101906020018083116112ef57829003601f168201915b50505050509250965096509650965096509650509295509295509295565b60016020528060005260406000206000915090508060000160009054906101000a900473ffffffffffffffffffffffffffffffffffffffff169080600101805461137390612b3e565b80601f016020809104026020016040519081016040528092919081815260200182805461139f90612b3e565b80156113ec5780601f106113c1576101008083540402835291602001916113ec565b820191906000526020600020905b8154815290600101906020018083116113cf57829003601f168201915b50505050509080600201549080600301549080600401805461140d90612b3e565b80601f016020809104026020016040519081016040528092919081815260200182805461143990612b3e565b80156114865780601f1061145b57610100808354040283529160200191611486565b820191906000526020600020905b81548152906001019060200180831161146957829003601f168201915b5050505050908060050154908060060154908060070154905088565b60006001600085815260200190815260200160002090506114c1611f7b565b6000600183600701546114d49190612a5e565b90508082600001818152505084826020018190525083826040019073ffffffffffffffffffffffffffffffffffffffff16908173ffffffffffffffffffffffffffffffffffffffff1681525050428260600181815250508260090182908060018154018082558091505060019003906000526020600020906004020160009091909190915060008201518160000155602082015181600101908051906020019061157f929190611eb0565b5060408201518160020160006101000a81548173ffffffffffffffffffffffffffffffffffffffff021916908373ffffffffffffffffffffffffffffffffffffffff1602179055506060820151816003015550508260070160008154809291906115e890612b70565b91905055507f78938b80d2e2b835d1f8816f6e13a7e16a0c87a7bda93e7520857ab2dbfa690a81868642604051611622949392919061295e565b60405180910390a1505050505050565b60005481565b60008060008060606000806000600360008b73ffffffffffffffffffffffffffffffffffffffff1673ffffffffffffffffffffffffffffffffffffffff16815260200190815260200160002054905060016000828152602001908152602001600020600a0189815481106116d5577f4e487b7100000000000000000000000000000000000000000000000000000000600052603260045260246000fd5b90600052602060002090600702016000015460016000838152602001908152602001600020600a018a81548110611735577f4e487b7100000000000000000000000000000000000000000000000000000000600052603260045260246000fd5b906000526020600020906007020160010160009054906101000a900473ffffffffffffffffffffffffffffffffffffffff1660016000848152602001908152602001600020600a018b815481106117b5577f4e487b7100000000000000000000000000000000000000000000000000000000600052603260045260246000fd5b90600052602060002090600702016002015460016000858152602001908152602001600020600a018c81548110611815577f4e487b7100000000000000000000000000000000000000000000000000000000600052603260045260246000fd5b90600052602060002090600702016003015460016000868152602001908152602001600020600a018d81548110611875577f4e487b7100000000000000000000000000000000000000000000000000000000600052603260045260246000fd5b906000526020600020906007020160040160016000878152602001908152602001600020600a018e815481106118d4577f4e487b7100000000000000000000000000000000000000000000000000000000600052603260045260246000fd5b90600052602060002090600702016005015460016000888152602001908152602001600020600a018f81548110611934577f4e487b7100000000000000000000000000000000000000000000000000000000600052603260045260246000fd5b90600052602060002090600702016006015482805461195290612b3e565b80601f016020809104026020016040519081016040528092919081815260200182805461197e90612b3e565b80156119cb5780601f106119a0576101008083540402835291602001916119cb565b820191906000526020600020905b8154815290600101906020018083116119ae57829003601f168201915b5050505050925097509750975097509750975097505092959891949750929550565b6000606060008060606000600360008873ffffffffffffffffffffffffffffffffffffffff1673ffffffffffffffffffffffffffffffffffffffff16815260200190815260200160002054905060006001600083815260200190815260200160002090508060000160009054906101000a900473ffffffffffffffffffffffffffffffffffffffff16816001018260020154836003015484600401838054611a9490612b3e565b80601f0160208091040260200160405190810160405280929190818152602001828054611ac090612b3e565b8015611b0d5780601f10611ae257610100808354040283529160200191611b0d565b820191906000526020600020905b815481529060010190602001808311611af057829003601f168201915b50505050509350808054611b2090612b3e565b80601f0160208091040260200160405190810160405280929190818152602001828054611b4c90612b3e565b8015611b995780601f10611b6e57610100808354040283529160200191611b99565b820191906000526020600020905b815481529060010190602001808311611b7c57829003601f168201915b5050505050905096509650965096509650505091939590929450565b60008054905090565b6000806001600054611bd09190612a5e565b90506000600190505b6000548111611c6b578773ffffffffffffffffffffffffffffffffffffffff166001600083815260200190815260200160002060000160009054906101000a900473ffffffffffffffffffffffffffffffffffffffff1673ffffffffffffffffffffffffffffffffffffffff161415611c585760019250809150611c6b565b8080611c6390612b70565b915050611bd9565b5081611dfa576000600160008381526020019081526020016000209050878160000160006101000a81548173ffffffffffffffffffffffffffffffffffffffff021916908373ffffffffffffffffffffffffffffffffffffffff16021790555086816001019080519060200190611ce3929190611eb0565b5085816002018190555084816003018190555083816004019080519060200190611d0e929190611eb0565b50600081600501819055506000816006018190555060008160070181905550600054600360008a73ffffffffffffffffffffffffffffffffffffffff1673ffffffffffffffffffffffffffffffffffffffff168152602001908152602001600020819055506006829080600181540180825580915050600190039060005260206000200160009091909190915055600080815480929190611dae90612b70565b91905055507f47a352a7254ef6cf17d89840a3b84756bedb0bcc7d21319db436bfba2cd924a7828989898989604051611dec969594939291906127a9565b60405180910390a150611e30565b7fa93deecd66bd1b0b6184bca4c64b2afb937f00e23f17facf6651afb94e734589604051611e27906126cf565b60405180910390a15b50505050505050565b60068181548110611e4957600080fd5b906000526020600020016000915090505481565b6040518060e0016040528060008152602001600073ffffffffffffffffffffffffffffffffffffffff16815260200160008152602001600081526020016060815260200160008152602001600081525090565b828054611ebc90612b3e565b90600052602060002090601f016020900481019282611ede5760008555611f25565b82601f10611ef757805160ff1916838001178555611f25565b82800160010185558215611f25579182015b82811115611f24578251825591602001919060010190611f09565b5b509050611f329190611fb9565b5090565b6040518060a0016040528060008152602001600073ffffffffffffffffffffffffffffffffffffffff1681526020016000815260200160608152602001600081525090565b60405180608001604052806000815260200160608152602001600073ffffffffffffffffffffffffffffffffffffffff168152602001600081525090565b5b80821115611fd2576000816000905550600101611fba565b5090565b6000611fe9611fe484612a12565b6129e1565b90508281526020810184848401111561200157600080fd5b61200c848285612afc565b509392505050565b60008135905061202381612c57565b92915050565b600082601f83011261203a57600080fd5b813561204a848260208601611fd6565b91505092915050565b60008135905061206281612c6e565b92915050565b60006020828403121561207a57600080fd5b600061208884828501612014565b91505092915050565b600080600080608085870312156120a757600080fd5b60006120b587828801612014565b94505060206120c687828801612014565b935050604085013567ffffffffffffffff8111156120e357600080fd5b6120ef87828801612029565b925050606061210087828801612053565b91505092959194509250565b60008060008060008060c0878903121561212557600080fd5b600061213389828a01612014565b965050602061214489828a01612014565b955050604087013567ffffffffffffffff81111561216157600080fd5b61216d89828a01612029565b945050606061217e89828a01612053565b935050608061218f89828a01612053565b92505060a06121a089828a01612053565b9150509295509295509295565b6000806000606084860312156121c257600080fd5b60006121d086828701612014565b935050602084013567ffffffffffffffff8111156121ed57600080fd5b6121f986828701612029565b925050604084013567ffffffffffffffff81111561221657600080fd5b61222286828701612029565b9150509250925092565b600080600080600060a0868803121561224457600080fd5b600061225288828901612014565b955050602086013567ffffffffffffffff81111561226f57600080fd5b61227b88828901612029565b945050604061228c88828901612053565b935050606061229d88828901612053565b925050608086013567ffffffffffffffff8111156122ba57600080fd5b6122c688828901612029565b9150509295509295909350565b600080604083850312156122e657600080fd5b60006122f485828601612014565b925050602061230585828601612053565b9150509250929050565b60006020828403121561232157600080fd5b600061232f84828501612053565b91505092915050565b60008060006060848603121561234d57600080fd5b600061235b86828701612053565b935050602084013567ffffffffffffffff81111561237857600080fd5b61238486828701612029565b925050604061239586828701612014565b9150509250925092565b6123a881612ab4565b82525050565b6123b781612ac6565b82525050565b60006123c882612a42565b6123d28185612a4d565b93506123e2818560208601612b0b565b6123eb81612c46565b840191505092915050565b6000612403601583612a4d565b91507f446f63746f7220616c72656164792065786973747300000000000000000000006000830152602082019050919050565b6000612443601283612a4d565b91507f50617469656e74206e6f7420666f756e642e00000000000000000000000000006000830152602082019050919050565b6000612483600183612a4d565b91507f68000000000000000000000000000000000000000000000000000000000000006000830152602082019050919050565b6124bf81612af2565b82525050565b60006080820190506124da600083018761239f565b81810360208301526124ec81866123bd565b9050818103604083015261250081856123bd565b905061250f60608301846124b6565b95945050505050565b600060a08201905061252d600083018861239f565b818103602083015261253f81876123bd565b905061254e60408301866124b6565b61255b60608301856124b6565b818103608083015261256d81846123bd565b90509695505050505050565b60006101008201905061258f600083018b61239f565b81810360208301526125a1818a6123bd565b90506125b060408301896124b6565b6125bd60608301886124b6565b81810360808301526125cf81876123bd565b90506125de60a08301866124b6565b6125eb60c08301856124b6565b6125f860e08301846124b6565b9998505050505050505050565b600060208201905061261a60008301846123ae565b92915050565b600060c082019050818103600083015261263a81896123bd565b905061264960208301886124b6565b61265660408301876124b6565b818103606083015261266881866123bd565b9050612677608083018561239f565b61268460a08301846124b6565b979650505050505050565b600060208201905081810360008301526126a8816123f6565b9050919050565b600060208201905081810360008301526126c881612436565b9050919050565b600060208201905081810360008301526126e881612476565b9050919050565b600060208201905061270460008301846124b6565b92915050565b600060808201905061271f60008301876124b6565b61272c602083018661239f565b818103604083015261273e81856123bd565b9050818103606083015261275281846123bd565b905095945050505050565b600060808201905061277260008301876124b6565b61277f602083018661239f565b818103604083015261279181856123bd565b90506127a060608301846124b6565b95945050505050565b600060c0820190506127be60008301896124b6565b6127cb602083018861239f565b81810360408301526127dd81876123bd565b90506127ec60608301866124b6565b6127f960808301856124b6565b81810360a083015261280b81846123bd565b9050979650505050505050565b600060e08201905061282d600083018a6124b6565b61283a602083018961239f565b818103604083015261284c81886123bd565b905061285b60608301876124b6565b61286860808301866124b6565b61287560a08301856124b6565b61288260c08301846124b6565b98975050505050505050565b600060a0820190506128a360008301886124b6565b6128b0602083018761239f565b6128bd60408301866124b6565b6128ca60608301856124b6565b81810360808301526128dc81846123bd565b90509695505050505050565b600060e0820190506128fd600083018a6124b6565b61290a602083018961239f565b61291760408301886124b6565b61292460608301876124b6565b818103608083015261293681866123bd565b905061294560a08301856124b6565b61295260c08301846124b6565b98975050505050505050565b600060808201905061297360008301876124b6565b818103602083015261298581866123bd565b9050612994604083018561239f565b6129a160608301846124b6565b95945050505050565b60006060820190506129bf60008301866124b6565b6129cc60208301856124b6565b6129d960408301846124b6565b949350505050565b6000604051905081810181811067ffffffffffffffff82111715612a0857612a07612c17565b5b8060405250919050565b600067ffffffffffffffff821115612a2d57612a2c612c17565b5b601f19601f8301169050602081019050919050565b600081519050919050565b600082825260208201905092915050565b6000612a6982612af2565b9150612a7483612af2565b9250827fffffffffffffffffffffffffffffffffffffffffffffffffffffffffffffffff03821115612aa957612aa8612bb9565b5b828201905092915050565b6000612abf82612ad2565b9050919050565b60008115159050919050565b600073ffffffffffffffffffffffffffffffffffffffff82169050919050565b6000819050919050565b82818337600083830152505050565b60005b83811015612b29578082015181840152602081019050612b0e565b83811115612b38576000848401525b50505050565b60006002820490506001821680612b5657607f821691505b60208210811415612b6a57612b69612be8565b5b50919050565b6000612b7b82612af2565b91507fffffffffffffffffffffffffffffffffffffffffffffffffffffffffffffffff821415612bae57612bad612bb9565b5b600182019050919050565b7f4e487b7100000000000000000000000000000000000000000000000000000000600052601160045260246000fd5b7f4e487b7100000000000000000000000000000000000000000000000000000000600052602260045260246000fd5b7f4e487b7100000000000000000000000000000000000000000000000000000000600052604160045260246000fd5b6000601f19601f8301169050919050565b612c6081612ab4565b8114612c6b57600080fd5b50565b612c7781612af2565b8114612c8257600080fd5b5056fea264697066735822122094a4d82f8494fa20403420527a07bf7f71458ea6f74b1718f0e9710cf74e6f0064736f6c63430008000033",
  "immutableReferences": {},
  "source": "// SPDX-License-Identifier: MIT\r\npragma solidity ^ 0.8.0;\r\n\r\ncontract Hospital{\r\n\t\tuint public patientCount;\r\n\r\n\t\tstruct Patient {\r\n\t\t\t\taddress patientAddress;\r\n\t\t\t\tstring name;\r\n\t\t\t\tuint age;\r\n\t\t\t\tuint contact;\r\n\t\t\t\tstring userAddress;\r\n\t\t\t\tuint prescriptionCount;\r\n\t\t\t\tuint receiptCount;\r\n\t\t\t\tuint recordCount;\r\n\t\t\t\tPrescription[] prescriptions;\r\n\t\t\t\tRecord[] records;\r\n\t\t\t\tReceipt[] receipts;\r\n\t\t\t\tDoctor [] doctor;\r\n\r\n\t\t}\r\n\r\n\t\tstruct HealthCare {\r\n\t\t\t\tstring name;\r\n\t\t\t\tuint contact;\r\n\t\t\t\tstring HospitalAddress;\r\n\t\t\t\taddress healthCareID;\r\n\t\t\t\tuint patientsCount;\r\n\t\t\t\tDoctor [] doctors;\r\n\t\t\t\tPharmacy [] pharmacy;\r\n\t\t}\r\n\t\tstruct Doctor {\r\n    \t\t\taddress doctorAddress;\r\n    \t\t\tstring name;\r\n    \t\t\tstring designation;\r\n    \t\t\tuint recordCount;\r\n\t\t}\r\n\r\n\t\tstruct Pharmacy {\r\n\t\t\taddress pharmacyAddress;\r\n\t\t\tDoctor [] doctor;\r\n\t\t}\r\n\r\n\r\n\r\n\t\tstruct Record {\r\n\t\t\t\tuint recordid;\r\n\t\t\t\tstring disease;\r\n\t\t\t\taddress doctorAddress;\r\n\t\t\t\tuint256 timestamp;\r\n\t\t}\r\n\r\n\t\tstruct Receipt {\r\n\t\t\t\tuint receiptid;\r\n\t\t\t\taddress doctorAddress;\r\n\t\t\t\tuint256 timestamp;\r\n\t\t\t\tuint totalcost;\r\n\t\t\t\tstring drugname;\r\n\t\t\t\tuint drugCount;\r\n\t\t\t\tuint256 receiptNumber;\r\n\t\t}\r\n\r\n\t\tstruct Prescription {\r\n\t\t\t\tuint prescriptionid;\r\n\t\t\t\taddress healthCareAddress;\r\n\t\t\t\tuint256 timestamp;\r\n\t\t\t\tstring drugname;\r\n\t\t\t\tuint drugCount;\r\n\t\t}\r\n        event AddPatient(\r\n\t\t\t\tuint id,\r\n\t\t\t\taddress patientAddress,\r\n\t\t\t\tstring name,\r\n\t\t\t\tuint age,\r\n\t\t\t\tuint contact,\r\n\t\t\t\tstring userAddress\r\n\t\t);\r\n\t\tevent AddDoctor(\r\n\t\t\tuint id, \r\n\t\t\taddress doctorAddress, \r\n\t\t\tstring name, \r\n\t\t\tstring designation\r\n\t\t);\r\n\r\n\t\tevent PatientExists(\r\n\t\t\t\tstring description\r\n\t\t);\r\n\r\n\t\tevent AddPrescription(\r\n\t\t\t\tuint prescriptionid,\r\n\t\t\t\taddress healthCareAddress,\r\n\t\t\t\tstring drugname,\r\n\t\t\t\tuint256 timestamp\r\n\t\t);\r\n\r\n\t\tevent AddRecord(\r\n\t\t\t\tuint recordid,\r\n\t\t\t\tstring disease,\r\n\t\t\t\taddress doctorAddress,\r\n\t\t\t\tuint256 timestamp\r\n\t\t);\r\n\r\n\t\tevent AddReceipt(\r\n\t\t\t\tuint receiptid,\r\n\t\t\t\taddress doctorAddress,\r\n\t\t\t\tstring drugname,\r\n\t\t\t\tuint256 timestamp,\r\n\t\t\t\tuint totalcost,\r\n\t\t\t\tuint256 receiptNumber,\r\n\t\t\t\tuint drugCount\r\n\t\t);\r\n\r\n        mapping (uint => Patient) public patients;\r\n\t\tmapping (uint => Doctor) public doctors; \r\n        mapping (address => uint) addressToIndex;\r\n\t\tmapping (address => uint) addressToIndexDoctor;\r\n\t\tmapping(address => bool) public doctorExists;\r\n\t\tuint[] public patientsList;\r\n\t\tuint[] public doctorsList;\r\n\t\tuint public doctorCount;\r\n\r\n\t\tfunction setDoctor(address _doctorAddress, string memory _name, string memory _designation) public {\r\n       \t\trequire(!doctorExists[_doctorAddress], \"Doctor already exists\");    \r\n    \t\tuint id = doctorCount + 1;\r\n    \t\tDoctor storage doctor = doctors[id];\r\n    \t\tdoctor.doctorAddress = _doctorAddress;\r\n    \t\tdoctor.name = _name;\r\n    \t\tdoctor.designation = _designation;\r\n\t\t\taddressToIndexDoctor[_doctorAddress] = doctorCount;\r\n\r\n    \t\tdoctorExists[_doctorAddress] = true;\r\n    \t\tdoctorsList.push(id);\r\n   \t\t\tdoctorCount++;\r\n\r\n    \t\temit AddDoctor(id, _doctorAddress, _name, _designation);\r\n}\r\n\r\nfunction setPatient(address _patientAddress, string memory _name, uint _age, uint _contact, string memory _userAddress) public {\r\n\t\tbool patientExists = false;\r\n\t\tuint id = patientCount + 1;\r\n\t\tfor (uint i = 1; i <= patientCount; i++) {\r\n\t\t\t\tif (patients[i].patientAddress == _patientAddress) {\r\n\t\t\t\t\t\tpatientExists = true;\r\n\t\t\t\t\t\tid = i;\r\n\t\t\t\t\t\tbreak;\r\n\t\t\t\t}\r\n\t\t}\r\n\t\tif (!patientExists) {\r\n\t\t\t\tPatient storage patient = patients[id];\r\n\r\n\t\t\t\tpatient.patientAddress = _patientAddress;\r\n\t\t\t\tpatient.name = _name;\r\n\t\t\t\tpatient.age = _age;\r\n\t\t\t\tpatient.contact = _contact;\r\n\t\t\t\tpatient.userAddress = _userAddress;\r\n\t\t\t\tpatient.prescriptionCount = 0;\r\n\t\t\t\tpatient.receiptCount = 0;\r\n\t\t\t\tpatient.recordCount = 0;\r\n                addressToIndex[_patientAddress] = patientCount;\r\n\r\n\t\t\t\tpatientsList.push(id);\r\n\t\t\t\tpatientCount++;\r\n\r\n\t\t\t\temit AddPatient(id, _patientAddress, _name, _age, _contact, _userAddress);\r\n\t\t} else {\r\n\t\t\t\temit PatientExists (\"h\");\r\n\t\t}\r\n}\r\nfunction getPatientCount() public view returns (uint) {\r\n\t\t\t\treturn patientCount;\r\n\t\t}\r\nfunction getDoctorCount() public view returns (uint) {\r\n\t\t\t\treturn doctorCount;\r\n\t}\r\n        function getPatientfromAddress(address _address) public view returns (address, string memory, uint, uint, string memory) {\r\n\t\t\t\t\t\tuint patientIndex = 0;\r\n                        patientIndex = addressToIndex[_address];\r\n\t\t\t\t\t\tPatient storage patient = patients[patientIndex];\r\n\t\t\t\t\t\treturn (patient.patientAddress, patient.name, patient.age, patient.contact, patient.userAddress);\r\n\t\t}\r\n        \r\n\r\n\t\tfunction getCount(address _patientAddress) public view returns (uint, uint, uint) {\r\n\t\t\t    uint patientIndex = 0;\r\n                patientIndex = addressToIndex[_patientAddress];\r\n\t\t\t\tPatient storage patient = patients[patientIndex];\r\n\t\t\t\treturn (patient.recordCount, patient.prescriptionCount, patient.receiptCount);\r\n\t\t}\r\n\t\t\r\n\t\tfunction getPrescriptionfromAddress(address _patientAddress, uint _index) view public returns (uint, address, uint256, uint, string memory) {\r\n\t\tuint patientIndex = 0;\r\n        patientIndex = addressToIndex[_patientAddress];\r\n\t\r\n\t\treturn (\r\n\t\t\t\tpatients[patientIndex].prescriptions[_index].prescriptionid,\r\n\t\t\t\tpatients[patientIndex].prescriptions[_index].healthCareAddress,\r\n\t\t\t\tpatients[patientIndex].prescriptions[_index].timestamp,\r\n\t\t\t\tpatients[patientIndex].prescriptions[_index].drugCount,\r\n\t\tpatients[patientIndex].prescriptions[_index].drugname\r\n\t\t);\r\n}\r\n\r\n\r\nfunction getReceiptfromAddress(address _patientAddress, uint _index) view public returns (uint,address,uint256,uint,string memory,uint,uint256) {\r\n\t\tuint patientIndex = 0;\r\n        patientIndex = addressToIndex[_patientAddress];\r\n\t\r\n\t\treturn (\r\n\t\t\t\tpatients[patientIndex].receipts[_index].receiptid,\r\n\t\tpatients[patientIndex].receipts[_index].doctorAddress,\r\n\t\tpatients[patientIndex].receipts[_index].timestamp,\r\n\t\tpatients[patientIndex].receipts[_index].totalcost,\r\n\t\tpatients[patientIndex].receipts[_index].drugname,\r\n\t\tpatients[patientIndex].receipts[_index].drugCount,\r\n\t\tpatients[patientIndex].receipts[_index].receiptNumber\r\n        \r\n\t\t);\r\n}\r\n\r\n\r\nfunction setDiagnosisfromID(uint _patientid,string memory _disease,address _doctorAddress) public {\r\n\t\tPatient storage patient = patients[_patientid];\r\n\t\tRecord memory temp;\r\n\t\tuint id = patient.recordCount + 1;\r\n\t\ttemp.recordid = id;\r\n\t\ttemp.disease = _disease;\r\n\t\ttemp.doctorAddress = _doctorAddress;\r\n\t\ttemp.timestamp = block.timestamp;\r\n\t\tpatient.records.push(temp);\r\n\t\tpatient.recordCount++;\r\n\t\temit AddRecord(id,_disease,_doctorAddress,block.timestamp);\r\n}\r\nfunction getDiagosisfromAddress(address _patientAddress, uint _index) view public returns (string memory, uint, uint, string memory, address, uint256) {\r\n\t\tuint patientIndex = 0;\r\n        patientIndex = addressToIndex[_patientAddress];\r\n\t\r\n\t\treturn (\r\n\t\tpatients[patientIndex].name,\r\n\t\tpatients[patientIndex].age,\r\n\t\t\t\tpatients[patientIndex].records[_index].recordid,\r\n\t\t\t\tpatients[patientIndex].records[_index].disease,\r\n\t\t\t\tpatients[patientIndex].records[_index].doctorAddress,\r\n\t\t\t\tpatients[patientIndex].records[_index].timestamp\r\n\t\t);\r\n}\r\nfunction setReceiptfromAddress(address _patientAddress,address _doctorAddress,string memory _drugname,uint _totalcost,uint _drugCount, uint256 _receiptNumber) public {\r\n\t\tuint patientIndex = 0;\r\n        patientIndex = addressToIndex[_patientAddress];\r\n\t\tPatient storage patient = patients[patientIndex];\r\n\t\tReceipt memory temp;\r\n\t\tuint id = patient.receiptCount + 1;\r\n\t\ttemp.receiptid = id;\r\n\t\ttemp.doctorAddress = _doctorAddress;\r\n\t\ttemp.timestamp = block.timestamp;\r\n\t\ttemp.totalcost = _totalcost;\r\n\t\ttemp.drugname = _drugname;\r\n\t\ttemp.drugCount = _drugCount;\r\n\t\ttemp.receiptNumber =_receiptNumber;\r\n\t\tpatient.receipts.push(temp);\r\n\t\tpatient.receiptCount++;\r\n\r\n\t\temit AddReceipt(id,_doctorAddress,_drugname,block.timestamp,_totalcost,_receiptNumber,_drugCount);\r\n}\r\nfunction setPrescriptionfromAddress(address _patientAddress,address _healthCareAddress ,string memory _drugname, uint _drugCount) public {\r\n        uint patientIndex = 0;\r\n        patientIndex = addressToIndex[_patientAddress];\r\n\t\trequire(patientIndex != 0, \"Patient not found.\");\r\n\r\n\t\tPatient storage patient = patients[patientIndex];\r\n\t\tPrescription memory temp;\r\n\t\tuint id = patient.prescriptionCount + 1;\r\n\t\ttemp.prescriptionid = id;\r\n\t\ttemp.healthCareAddress = _healthCareAddress;\r\n\t\ttemp.timestamp = block.timestamp;\r\n\t\ttemp.drugname = _drugname;\r\n\t\ttemp.drugCount = _drugCount;\r\n\t\tpatient.prescriptions.push(temp); // add the new prescription object to the patient's prescriptions array\r\n\t\tpatient.prescriptionCount++;\r\n\r\n\t\temit AddPrescription(id, _healthCareAddress, _drugname, block.timestamp);\r\n}\r\n}\r\n",
  "sourcePath": "D:\\Medical Chain\\contracts\\Hospital.sol",
  "compiler": {
    "name": "solc",
    "version": "0.8.0+commit.c7dfd78e.Emscripten.clang"
  },
  "schemaVersion": "3.4.13",
  "updatedAt": "2023-05-15T07:03:53.474Z",
  "devdoc": {
    "kind": "dev",
    "methods": {},
    "version": 1
  },
  "userdoc": {
    "kind": "user",
    "methods": {},
    "version": 1
  }
}