{
  "contractName": "Users",
  "abi": [
    {
      "anonymous": false,
      "inputs": [
        {
          "indexed": false,
          "internalType": "uint256",
          "name": "id",
          "type": "uint256"
        },
        {
          "indexed": false,
          "internalType": "address",
          "name": "patientAddress",
          "type": "address"
        },
        {
          "indexed": false,
          "internalType": "string",
          "name": "name",
          "type": "string"
        },
        {
          "indexed": false,
          "internalType": "uint256",
          "name": "age",
          "type": "uint256"
        },
        {
          "indexed": false,
          "internalType": "uint256",
          "name": "contact",
          "type": "uint256"
        },
        {
          "indexed": false,
          "internalType": "string",
          "name": "userAddress",
          "type": "string"
        }
      ],
      "name": "AddPatient",
      "type": "event"
    },
    {
      "anonymous": false,
      "inputs": [
        {
          "indexed": false,
          "internalType": "uint256",
          "name": "prescriptionid",
          "type": "uint256"
        },
        {
          "indexed": false,
          "internalType": "address",
          "name": "doctorAddress",
          "type": "address"
        },
        {
          "indexed": false,
          "internalType": "address",
          "name": "chainAddress",
          "type": "address"
        },
        {
          "indexed": false,
          "internalType": "string",
          "name": "drugname",
          "type": "string"
        },
        {
          "indexed": false,
          "internalType": "uint256",
          "name": "drugCost",
          "type": "uint256"
        },
        {
          "indexed": false,
          "internalType": "uint256",
          "name": "drugCount",
          "type": "uint256"
        },
        {
          "indexed": false,
          "internalType": "uint256",
          "name": "timestamp",
          "type": "uint256"
        }
      ],
      "name": "AddPrescription",
      "type": "event"
    },
    {
      "anonymous": false,
      "inputs": [
        {
          "indexed": false,
          "internalType": "uint256",
          "name": "receiptid",
          "type": "uint256"
        },
        {
          "indexed": false,
          "internalType": "address",
          "name": "chainAddress",
          "type": "address"
        },
        {
          "indexed": false,
          "internalType": "string",
          "name": "drugname",
          "type": "string"
        },
        {
          "indexed": false,
          "internalType": "uint256",
          "name": "timestamp",
          "type": "uint256"
        },
        {
          "indexed": false,
          "internalType": "uint256",
          "name": "totalcost",
          "type": "uint256"
        },
        {
          "indexed": false,
          "internalType": "uint256",
          "name": "receiptNumber",
          "type": "uint256"
        },
        {
          "indexed": false,
          "internalType": "uint256",
          "name": "drugCount",
          "type": "uint256"
        }
      ],
      "name": "AddReceipt",
      "type": "event"
    },
    {
      "anonymous": false,
      "inputs": [
        {
          "indexed": false,
          "internalType": "uint256",
          "name": "recordid",
          "type": "uint256"
        },
        {
          "indexed": false,
          "internalType": "string",
          "name": "disease",
          "type": "string"
        },
        {
          "indexed": false,
          "internalType": "address",
          "name": "doctorAddress",
          "type": "address"
        },
        {
          "indexed": false,
          "internalType": "address",
          "name": "chainAddress",
          "type": "address"
        },
        {
          "indexed": false,
          "internalType": "uint256",
          "name": "timestamp",
          "type": "uint256"
        }
      ],
      "name": "AddRecord",
      "type": "event"
    },
    {
      "anonymous": false,
      "inputs": [
        {
          "indexed": false,
          "internalType": "address",
          "name": "doctorAddress",
          "type": "address"
        },
        {
          "indexed": false,
          "internalType": "address",
          "name": "healthCareAddress",
          "type": "address"
        },
        {
          "indexed": false,
          "internalType": "uint256",
          "name": "id",
          "type": "uint256"
        },
        {
          "indexed": false,
          "internalType": "string",
          "name": "name",
          "type": "string"
        },
        {
          "indexed": false,
          "internalType": "string",
          "name": "designation",
          "type": "string"
        }
      ],
      "name": "AdddDoctor",
      "type": "event"
    },
    {
      "anonymous": false,
      "inputs": [
        {
          "indexed": false,
          "internalType": "string",
          "name": "description",
          "type": "string"
        }
      ],
      "name": "PatientExists",
      "type": "event"
    },
    {
      "inputs": [],
      "name": "doctorCount",
      "outputs": [
        {
          "internalType": "uint256",
          "name": "",
          "type": "uint256"
        }
      ],
      "stateMutability": "view",
      "type": "function",
      "constant": true
    },
    {
      "inputs": [
        {
          "internalType": "uint256",
          "name": "",
          "type": "uint256"
        }
      ],
      "name": "doctors",
      "outputs": [
        {
          "internalType": "address",
          "name": "doctorAddress",
          "type": "address"
        },
        {
          "internalType": "address",
          "name": "healthCareAddress",
          "type": "address"
        },
        {
          "internalType": "uint256",
          "name": "id",
          "type": "uint256"
        },
        {
          "internalType": "string",
          "name": "name",
          "type": "string"
        },
        {
          "internalType": "string",
          "name": "designation",
          "type": "string"
        }
      ],
      "stateMutability": "view",
      "type": "function",
      "constant": true
    },
    {
      "inputs": [
        {
          "internalType": "uint256",
          "name": "",
          "type": "uint256"
        }
      ],
      "name": "doctorsList",
      "outputs": [
        {
          "internalType": "uint256",
          "name": "",
          "type": "uint256"
        }
      ],
      "stateMutability": "view",
      "type": "function",
      "constant": true
    },
    {
      "inputs": [
        {
          "internalType": "string",
          "name": "",
          "type": "string"
        }
      ],
      "name": "drugCosts",
      "outputs": [
        {
          "internalType": "uint256",
          "name": "",
          "type": "uint256"
        }
      ],
      "stateMutability": "view",
      "type": "function",
      "constant": true
    },
    {
      "inputs": [
        {
          "internalType": "uint256",
          "name": "",
          "type": "uint256"
        }
      ],
      "name": "drugsList",
      "outputs": [
        {
          "internalType": "uint256",
          "name": "",
          "type": "uint256"
        }
      ],
      "stateMutability": "view",
      "type": "function",
      "constant": true
    },
    {
      "inputs": [],
      "name": "healthCarecount",
      "outputs": [
        {
          "internalType": "uint256",
          "name": "",
          "type": "uint256"
        }
      ],
      "stateMutability": "view",
      "type": "function",
      "constant": true
    },
    {
      "inputs": [
        {
          "internalType": "uint256",
          "name": "",
          "type": "uint256"
        }
      ],
      "name": "healthCarelist",
      "outputs": [
        {
          "internalType": "uint256",
          "name": "",
          "type": "uint256"
        }
      ],
      "stateMutability": "view",
      "type": "function",
      "constant": true
    },
    {
      "inputs": [
        {
          "internalType": "uint256",
          "name": "",
          "type": "uint256"
        }
      ],
      "name": "healthCares",
      "outputs": [
        {
          "internalType": "address",
          "name": "chainAddress",
          "type": "address"
        },
        {
          "internalType": "string",
          "name": "name",
          "type": "string"
        },
        {
          "internalType": "uint256",
          "name": "contact",
          "type": "uint256"
        },
        {
          "internalType": "address",
          "name": "healthCareAddress",
          "type": "address"
        },
        {
          "internalType": "uint256",
          "name": "patientsCount",
          "type": "uint256"
        }
      ],
      "stateMutability": "view",
      "type": "function",
      "constant": true
    },
    {
      "inputs": [],
      "name": "patientCount",
      "outputs": [
        {
          "internalType": "uint256",
          "name": "",
          "type": "uint256"
        }
      ],
      "stateMutability": "view",
      "type": "function",
      "constant": true
    },
    {
      "inputs": [
        {
          "internalType": "uint256",
          "name": "",
          "type": "uint256"
        }
      ],
      "name": "patientrecords",
      "outputs": [
        {
          "internalType": "address",
          "name": "patientAddress",
          "type": "address"
        },
        {
          "internalType": "string",
          "name": "name",
          "type": "string"
        },
        {
          "internalType": "uint256",
          "name": "age",
          "type": "uint256"
        },
        {
          "internalType": "uint256",
          "name": "contact",
          "type": "uint256"
        },
        {
          "internalType": "string",
          "name": "userAddress",
          "type": "string"
        },
        {
          "internalType": "uint256",
          "name": "prescriptionCount",
          "type": "uint256"
        },
        {
          "internalType": "uint256",
          "name": "receiptCount",
          "type": "uint256"
        },
        {
          "internalType": "uint256",
          "name": "recordCount",
          "type": "uint256"
        }
      ],
      "stateMutability": "view",
      "type": "function",
      "constant": true
    },
    {
      "inputs": [
        {
          "internalType": "uint256",
          "name": "",
          "type": "uint256"
        }
      ],
      "name": "patients",
      "outputs": [
        {
          "internalType": "address",
          "name": "patientAddress",
          "type": "address"
        },
        {
          "internalType": "string",
          "name": "name",
          "type": "string"
        },
        {
          "internalType": "uint256",
          "name": "age",
          "type": "uint256"
        },
        {
          "internalType": "uint256",
          "name": "contact",
          "type": "uint256"
        },
        {
          "internalType": "string",
          "name": "userAddress",
          "type": "string"
        },
        {
          "internalType": "uint256",
          "name": "prescriptionCount",
          "type": "uint256"
        },
        {
          "internalType": "uint256",
          "name": "receiptCount",
          "type": "uint256"
        },
        {
          "internalType": "uint256",
          "name": "recordCount",
          "type": "uint256"
        }
      ],
      "stateMutability": "view",
      "type": "function",
      "constant": true
    },
    {
      "inputs": [
        {
          "internalType": "uint256",
          "name": "",
          "type": "uint256"
        }
      ],
      "name": "patientsList",
      "outputs": [
        {
          "internalType": "uint256",
          "name": "",
          "type": "uint256"
        }
      ],
      "stateMutability": "view",
      "type": "function",
      "constant": true
    },
    {
      "inputs": [],
      "name": "pharmacyCount",
      "outputs": [
        {
          "internalType": "uint256",
          "name": "",
          "type": "uint256"
        }
      ],
      "stateMutability": "view",
      "type": "function",
      "constant": true
    },
    {
      "inputs": [
        {
          "internalType": "address",
          "name": "_doctorAddress",
          "type": "address"
        }
      ],
      "name": "loginDoctor",
      "outputs": [
        {
          "internalType": "bool",
          "name": "",
          "type": "bool"
        }
      ],
      "stateMutability": "view",
      "type": "function",
      "constant": true
    },
    {
      "inputs": [
        {
          "internalType": "address",
          "name": "_healthCareAddress",
          "type": "address"
        }
      ],
      "name": "loginHealthCare",
      "outputs": [
        {
          "internalType": "bool",
          "name": "",
          "type": "bool"
        }
      ],
      "stateMutability": "view",
      "type": "function",
      "constant": true
    },
    {
      "inputs": [
        {
          "internalType": "address",
          "name": "_patientAddress",
          "type": "address"
        }
      ],
      "name": "loginPatient",
      "outputs": [
        {
          "internalType": "bool",
          "name": "",
          "type": "bool"
        }
      ],
      "stateMutability": "view",
      "type": "function",
      "constant": true
    },
    {
      "inputs": [
        {
          "internalType": "address",
          "name": "_doctorAddress",
          "type": "address"
        },
        {
          "internalType": "string",
          "name": "_name",
          "type": "string"
        },
        {
          "internalType": "string",
          "name": "_designation",
          "type": "string"
        }
      ],
      "name": "setDoctor",
      "outputs": [],
      "stateMutability": "nonpayable",
      "type": "function"
    },
    {
      "inputs": [
        {
          "internalType": "address",
          "name": "_patientAddress",
          "type": "address"
        },
        {
          "internalType": "string",
          "name": "_name",
          "type": "string"
        },
        {
          "internalType": "uint256",
          "name": "_age",
          "type": "uint256"
        },
        {
          "internalType": "uint256",
          "name": "_contact",
          "type": "uint256"
        },
        {
          "internalType": "string",
          "name": "_userAddress",
          "type": "string"
        }
      ],
      "name": "setPatient",
      "outputs": [],
      "stateMutability": "nonpayable",
      "type": "function"
    },
    {
      "inputs": [
        {
          "internalType": "string",
          "name": "drugName",
          "type": "string"
        },
        {
          "internalType": "uint256",
          "name": "cost",
          "type": "uint256"
        }
      ],
      "name": "setDrugCost",
      "outputs": [],
      "stateMutability": "nonpayable",
      "type": "function"
    },
    {
      "inputs": [
        {
          "internalType": "address",
          "name": "_patientAddress",
          "type": "address"
        },
        {
          "internalType": "string",
          "name": "_disease",
          "type": "string"
        },
        {
          "internalType": "address",
          "name": "_chainAddress",
          "type": "address"
        },
        {
          "internalType": "address",
          "name": "_doctorAddress",
          "type": "address"
        }
      ],
      "name": "setDiagnosisfromAddress",
      "outputs": [],
      "stateMutability": "nonpayable",
      "type": "function"
    },
    {
      "inputs": [
        {
          "internalType": "address",
          "name": "_patientAddress",
          "type": "address"
        },
        {
          "internalType": "address",
          "name": "_chainAddress",
          "type": "address"
        },
        {
          "internalType": "string",
          "name": "_drugname",
          "type": "string"
        },
        {
          "internalType": "uint256",
          "name": "_drugCount",
          "type": "uint256"
        },
        {
          "internalType": "address",
          "name": "_doctorAddress",
          "type": "address"
        }
      ],
      "name": "setPrescriptionfromAddress",
      "outputs": [],
      "stateMutability": "nonpayable",
      "type": "function"
    },
    {
      "inputs": [],
      "name": "getPatientCount",
      "outputs": [
        {
          "internalType": "uint256",
          "name": "",
          "type": "uint256"
        }
      ],
      "stateMutability": "view",
      "type": "function",
      "constant": true
    },
    {
      "inputs": [
        {
          "internalType": "uint256",
          "name": "_id",
          "type": "uint256"
        }
      ],
      "name": "getPatientfromID",
      "outputs": [
        {
          "internalType": "address",
          "name": "",
          "type": "address"
        },
        {
          "internalType": "string",
          "name": "",
          "type": "string"
        },
        {
          "internalType": "uint256",
          "name": "",
          "type": "uint256"
        },
        {
          "internalType": "uint256",
          "name": "",
          "type": "uint256"
        },
        {
          "internalType": "string",
          "name": "",
          "type": "string"
        }
      ],
      "stateMutability": "view",
      "type": "function",
      "constant": true
    },
    {
      "inputs": [
        {
          "internalType": "uint256",
          "name": "_id",
          "type": "uint256"
        },
        {
          "internalType": "uint256",
          "name": "_pid",
          "type": "uint256"
        }
      ],
      "name": "getDoctorfromID",
      "outputs": [
        {
          "internalType": "address",
          "name": "",
          "type": "address"
        },
        {
          "internalType": "address",
          "name": "",
          "type": "address"
        },
        {
          "internalType": "string",
          "name": "",
          "type": "string"
        },
        {
          "internalType": "string",
          "name": "",
          "type": "string"
        },
        {
          "internalType": "string",
          "name": "",
          "type": "string"
        }
      ],
      "stateMutability": "view",
      "type": "function",
      "constant": true
    },
    {
      "inputs": [
        {
          "internalType": "address",
          "name": "_patientAddress",
          "type": "address"
        },
        {
          "internalType": "uint256",
          "name": "_index",
          "type": "uint256"
        }
      ],
      "name": "getReceiptfromAddress",
      "outputs": [
        {
          "internalType": "uint256",
          "name": "",
          "type": "uint256"
        },
        {
          "internalType": "address",
          "name": "",
          "type": "address"
        },
        {
          "internalType": "uint256",
          "name": "",
          "type": "uint256"
        },
        {
          "internalType": "uint256",
          "name": "",
          "type": "uint256"
        },
        {
          "internalType": "string",
          "name": "",
          "type": "string"
        },
        {
          "internalType": "uint256",
          "name": "",
          "type": "uint256"
        },
        {
          "internalType": "uint256",
          "name": "",
          "type": "uint256"
        }
      ],
      "stateMutability": "view",
      "type": "function",
      "constant": true
    },
    {
      "inputs": [
        {
          "internalType": "address",
          "name": "_patientAddress",
          "type": "address"
        }
      ],
      "name": "getReceipt",
      "outputs": [
        {
          "components": [
            {
              "internalType": "uint256",
              "name": "prescriptionid",
              "type": "uint256"
            },
            {
              "internalType": "address",
              "name": "doctorAddress",
              "type": "address"
            },
            {
              "internalType": "address",
              "name": "chainAddress",
              "type": "address"
            },
            {
              "internalType": "uint256",
              "name": "timestamp",
              "type": "uint256"
            },
            {
              "internalType": "string",
              "name": "drugname",
              "type": "string"
            },
            {
              "internalType": "uint256",
              "name": "drugCost",
              "type": "uint256"
            },
            {
              "internalType": "uint256",
              "name": "drugCount",
              "type": "uint256"
            }
          ],
          "internalType": "struct Users.Prescription[]",
          "name": "",
          "type": "tuple[]"
        }
      ],
      "stateMutability": "view",
      "type": "function",
      "constant": true
    },
    {
      "inputs": [
        {
          "internalType": "address",
          "name": "_patientAddress",
          "type": "address"
        },
        {
          "internalType": "address",
          "name": "_chainAddress",
          "type": "address"
        },
        {
          "internalType": "string",
          "name": "_drugname",
          "type": "string"
        },
        {
          "internalType": "uint256",
          "name": "_totalcost",
          "type": "uint256"
        },
        {
          "internalType": "uint256",
          "name": "_drugCount",
          "type": "uint256"
        },
        {
          "internalType": "uint256",
          "name": "_receiptNumber",
          "type": "uint256"
        }
      ],
      "name": "setReceiptfromAddress",
      "outputs": [],
      "stateMutability": "nonpayable",
      "type": "function"
    },
    {
      "inputs": [
        {
          "internalType": "address",
          "name": "_doctorAddress",
          "type": "address"
        }
      ],
      "name": "getDoctorIndex",
      "outputs": [
        {
          "internalType": "uint256",
          "name": "",
          "type": "uint256"
        }
      ],
      "stateMutability": "view",
      "type": "function",
      "constant": true
    },
    {
      "inputs": [
        {
          "internalType": "address",
          "name": "_patientAddress",
          "type": "address"
        }
      ],
      "name": "getPatientIndex",
      "outputs": [
        {
          "internalType": "uint256",
          "name": "",
          "type": "uint256"
        }
      ],
      "stateMutability": "view",
      "type": "function",
      "constant": true
    },
    {
      "inputs": [
        {
          "internalType": "address",
          "name": "_patientAddress",
          "type": "address"
        },
        {
          "internalType": "address",
          "name": "_doctorAddress",
          "type": "address"
        }
      ],
      "name": "getPatientIndexfromDoctor",
      "outputs": [
        {
          "internalType": "uint256",
          "name": "",
          "type": "uint256"
        }
      ],
      "stateMutability": "view",
      "type": "function",
      "constant": true
    },
    {
      "inputs": [
        {
          "internalType": "address",
          "name": "_doctorAddress",
          "type": "address"
        }
      ],
      "name": "getPatientsByDoctor",
      "outputs": [
        {
          "components": [
            {
              "internalType": "address",
              "name": "patientAddress",
              "type": "address"
            },
            {
              "internalType": "string",
              "name": "name",
              "type": "string"
            },
            {
              "internalType": "uint256",
              "name": "age",
              "type": "uint256"
            },
            {
              "internalType": "uint256",
              "name": "contact",
              "type": "uint256"
            },
            {
              "internalType": "string",
              "name": "userAddress",
              "type": "string"
            },
            {
              "internalType": "uint256",
              "name": "prescriptionCount",
              "type": "uint256"
            },
            {
              "internalType": "uint256",
              "name": "receiptCount",
              "type": "uint256"
            },
            {
              "internalType": "uint256",
              "name": "recordCount",
              "type": "uint256"
            },
            {
              "components": [
                {
                  "internalType": "uint256",
                  "name": "prescriptionid",
                  "type": "uint256"
                },
                {
                  "internalType": "address",
                  "name": "doctorAddress",
                  "type": "address"
                },
                {
                  "internalType": "address",
                  "name": "chainAddress",
                  "type": "address"
                },
                {
                  "internalType": "uint256",
                  "name": "timestamp",
                  "type": "uint256"
                },
                {
                  "internalType": "string",
                  "name": "drugname",
                  "type": "string"
                },
                {
                  "internalType": "uint256",
                  "name": "drugCost",
                  "type": "uint256"
                },
                {
                  "internalType": "uint256",
                  "name": "drugCount",
                  "type": "uint256"
                }
              ],
              "internalType": "struct Users.Prescription[]",
              "name": "prescriptions",
              "type": "tuple[]"
            },
            {
              "components": [
                {
                  "internalType": "uint256",
                  "name": "recordid",
                  "type": "uint256"
                },
                {
                  "internalType": "string",
                  "name": "disease",
                  "type": "string"
                },
                {
                  "internalType": "address",
                  "name": "doctorAddress",
                  "type": "address"
                },
                {
                  "internalType": "address",
                  "name": "chainAddress",
                  "type": "address"
                },
                {
                  "internalType": "uint256",
                  "name": "timestamp",
                  "type": "uint256"
                }
              ],
              "internalType": "struct Users.Record[]",
              "name": "records",
              "type": "tuple[]"
            },
            {
              "components": [
                {
                  "internalType": "uint256",
                  "name": "receiptid",
                  "type": "uint256"
                },
                {
                  "internalType": "address",
                  "name": "chainAddress",
                  "type": "address"
                },
                {
                  "internalType": "uint256",
                  "name": "timestamp",
                  "type": "uint256"
                },
                {
                  "internalType": "uint256",
                  "name": "totalcost",
                  "type": "uint256"
                },
                {
                  "internalType": "string",
                  "name": "drugname",
                  "type": "string"
                },
                {
                  "internalType": "uint256",
                  "name": "drugCount",
                  "type": "uint256"
                },
                {
                  "internalType": "uint256",
                  "name": "receiptNumber",
                  "type": "uint256"
                }
              ],
              "internalType": "struct Users.Receipt[]",
              "name": "receipts",
              "type": "tuple[]"
            }
          ],
          "internalType": "struct Users.Patient[]",
          "name": "",
          "type": "tuple[]"
        }
      ],
      "stateMutability": "view",
      "type": "function",
      "constant": true
    },
    {
      "inputs": [
        {
          "internalType": "uint256",
          "name": "doctorIndex",
          "type": "uint256"
        }
      ],
      "name": "getPatientsByDoctorIndex",
      "outputs": [
        {
          "components": [
            {
              "internalType": "address",
              "name": "patientAddress",
              "type": "address"
            },
            {
              "internalType": "string",
              "name": "name",
              "type": "string"
            },
            {
              "internalType": "uint256",
              "name": "age",
              "type": "uint256"
            },
            {
              "internalType": "uint256",
              "name": "contact",
              "type": "uint256"
            },
            {
              "internalType": "string",
              "name": "userAddress",
              "type": "string"
            },
            {
              "internalType": "uint256",
              "name": "prescriptionCount",
              "type": "uint256"
            },
            {
              "internalType": "uint256",
              "name": "receiptCount",
              "type": "uint256"
            },
            {
              "internalType": "uint256",
              "name": "recordCount",
              "type": "uint256"
            },
            {
              "components": [
                {
                  "internalType": "uint256",
                  "name": "prescriptionid",
                  "type": "uint256"
                },
                {
                  "internalType": "address",
                  "name": "doctorAddress",
                  "type": "address"
                },
                {
                  "internalType": "address",
                  "name": "chainAddress",
                  "type": "address"
                },
                {
                  "internalType": "uint256",
                  "name": "timestamp",
                  "type": "uint256"
                },
                {
                  "internalType": "string",
                  "name": "drugname",
                  "type": "string"
                },
                {
                  "internalType": "uint256",
                  "name": "drugCost",
                  "type": "uint256"
                },
                {
                  "internalType": "uint256",
                  "name": "drugCount",
                  "type": "uint256"
                }
              ],
              "internalType": "struct Users.Prescription[]",
              "name": "prescriptions",
              "type": "tuple[]"
            },
            {
              "components": [
                {
                  "internalType": "uint256",
                  "name": "recordid",
                  "type": "uint256"
                },
                {
                  "internalType": "string",
                  "name": "disease",
                  "type": "string"
                },
                {
                  "internalType": "address",
                  "name": "doctorAddress",
                  "type": "address"
                },
                {
                  "internalType": "address",
                  "name": "chainAddress",
                  "type": "address"
                },
                {
                  "internalType": "uint256",
                  "name": "timestamp",
                  "type": "uint256"
                }
              ],
              "internalType": "struct Users.Record[]",
              "name": "records",
              "type": "tuple[]"
            },
            {
              "components": [
                {
                  "internalType": "uint256",
                  "name": "receiptid",
                  "type": "uint256"
                },
                {
                  "internalType": "address",
                  "name": "chainAddress",
                  "type": "address"
                },
                {
                  "internalType": "uint256",
                  "name": "timestamp",
                  "type": "uint256"
                },
                {
                  "internalType": "uint256",
                  "name": "totalcost",
                  "type": "uint256"
                },
                {
                  "internalType": "string",
                  "name": "drugname",
                  "type": "string"
                },
                {
                  "internalType": "uint256",
                  "name": "drugCount",
                  "type": "uint256"
                },
                {
                  "internalType": "uint256",
                  "name": "receiptNumber",
                  "type": "uint256"
                }
              ],
              "internalType": "struct Users.Receipt[]",
              "name": "receipts",
              "type": "tuple[]"
            }
          ],
          "internalType": "struct Users.Patient[]",
          "name": "",
          "type": "tuple[]"
        }
      ],
      "stateMutability": "view",
      "type": "function",
      "constant": true
    },
    {
      "inputs": [],
      "name": "docount",
      "outputs": [
        {
          "internalType": "uint256",
          "name": "",
          "type": "uint256"
        }
      ],
      "stateMutability": "view",
      "type": "function",
      "constant": true
    }
  ],
  "bytecode": "0x608060405234801561001057600080fd5b506156f780620000216000396000f3fe608060405234801561001057600080fd5b50600436106101fb5760003560e01c80636453078f1161011a578063a0303c41116100ad578063c3d0f01f1161007c578063c3d0f01f146106a8578063dc65bef4146106c4578063dcc72045146106f4578063f3a0802b14610724578063fba6bb2f14610754576101fb565b8063a0303c4114610606578063a10fa07014610624578063a9d7b0ce14610654578063c190665b1461068a576101fb565b80637be8f228116100e95780637be8f22814610553578063824860a41461056f5780639230384b1461059f57806393119a83146105cf576101fb565b80636453078f146104b35780636efb1b84146104d1578063709898c01461050557806378522bc414610535576101fb565b806314cf2f081161019257806342ca9b9f1161016157806342ca9b9f146103e8578063510eccb11461041c57806353da77391461044c5780635dbcbc9a1461047c576101fb565b806314cf2f08146103625780631b91da61146103805780632ec2f2fc1461039c57806331e1fd78146103b8576101fb565b806304562d95116101ce57806304562d95146102c857806306cdd71f146102f85780631455985114610328578063146504e414610346576101fb565b806301460a5a14610200578063022ea4ba1461023457806302727ef0146102645780630446fd3214610294575b600080fd5b61021a600480360381019061021591906146db565b610770565b60405161022b959493929190614ee0565b60405180910390f35b61024e600480360381019061024991906142d4565b61086e565b60405161025b9190615027565b60405180910390f35b61027e600480360381019061027991906142d4565b610fd1565b60405161028b919061506b565b60405180910390f35b6102ae60048036038101906102a99190614704565b61107f565b6040516102bf959493929190614e17565b60405180910390f35b6102e260048036038101906102dd91906142d4565b6112f6565b6040516102ef9190615049565b60405180910390f35b610312600480360381019061030d91906142fd565b6114df565b60405161031f91906150c6565b60405180910390f35b610330611632565b60405161033d91906150c6565b60405180910390f35b610360600480360381019061035b91906143c8565b611638565b005b61036a6118a5565b60405161037791906150c6565b60405180910390f35b61039a600480360381019061039591906144e4565b6118ab565b005b6103b660048036038101906103b19190614339565b611a13565b005b6103d260048036038101906103cd91906142d4565b611e70565b6040516103df919061506b565b60405180910390f35b61040260048036038101906103fd91906146db565b611f1e565b604051610413959493929190614f3a565b60405180910390f35b610436600480360381019061043191906142d4565b6120a1565b60405161044391906150c6565b60405180910390f35b610466600480360381019061046191906146db565b612143565b60405161047391906150c6565b60405180910390f35b610496600480360381019061049191906146db565b612167565b6040516104aa989796959493929190614f9b565b60405180910390f35b6104bb6122ef565b6040516104c891906150c6565b60405180910390f35b6104eb60048036038101906104e691906146db565b6122f9565b6040516104fc959493929190614e7f565b60405180910390f35b61051f600480360381019061051a91906146db565b61247f565b60405161052c91906150c6565b60405180910390f35b61053d6124a3565b60405161054a91906150c6565b60405180910390f35b61056d60048036038101906105689190614469565b6124a9565b005b610589600480360381019061058491906142d4565b6128b8565b604051610596919061506b565b60405180910390f35b6105b960048036038101906105b49190614646565b612966565b6040516105c691906150c6565b60405180910390f35b6105e960048036038101906105e491906146db565b612994565b6040516105fd989796959493929190614f9b565b60405180910390f35b61060e612b0c565b60405161061b91906150c6565b60405180910390f35b61063e600480360381019061063991906142d4565b612b12565b60405161064b91906150c6565b60405180910390f35b61066e6004803603810190610669919061460a565b612bb4565b604051610681979695949392919061523c565b60405180910390f35b610692612fbc565b60405161069f91906150c6565b60405180910390f35b6106c260048036038101906106bd9190614563565b612fc5565b005b6106de60048036038101906106d991906146db565b61328c565b6040516106eb91906150c6565b60405180910390f35b61070e600480360381019061070991906146db565b6132b0565b60405161071b91906150c6565b60405180910390f35b61073e600480360381019061073991906146db565b6132d4565b60405161074b9190615027565b60405180910390f35b61076e60048036038101906107699190614687565b613a2b565b005b60086020528060005260406000206000915090508060000160009054906101000a900473ffffffffffffffffffffffffffffffffffffffff16908060010180546107b99061557a565b80601f01602080910402602001604051908101604052809291908181526020018280546107e59061557a565b80156108325780601f1061080757610100808354040283529160200191610832565b820191906000526020600020905b81548152906001019060200180831161081557829003601f168201915b5050505050908060020154908060030160009054906101000a900473ffffffffffffffffffffffffffffffffffffffff16908060040154905085565b6060600061087b836120a1565b905060008114156108c1576040517f08c379a00000000000000000000000000000000000000000000000000000000081526004016108b890615086565b60405180910390fd5b60066000828152602001908152602001600020600501805480602002602001604051908101604052809291908181526020016000905b82821015610fc557838290600052602060002090600b0201604051806101600160405290816000820160009054906101000a900473ffffffffffffffffffffffffffffffffffffffff1673ffffffffffffffffffffffffffffffffffffffff1673ffffffffffffffffffffffffffffffffffffffff1681526020016001820180546109819061557a565b80601f01602080910402602001604051908101604052809291908181526020018280546109ad9061557a565b80156109fa5780601f106109cf576101008083540402835291602001916109fa565b820191906000526020600020905b8154815290600101906020018083116109dd57829003601f168201915b505050505081526020016002820154815260200160038201548152602001600482018054610a279061557a565b80601f0160208091040260200160405190810160405280929190818152602001828054610a539061557a565b8015610aa05780601f10610a7557610100808354040283529160200191610aa0565b820191906000526020600020905b815481529060010190602001808311610a8357829003601f168201915b5050505050815260200160058201548152602001600682015481526020016007820154815260200160088201805480602002602001604051908101604052809291908181526020016000905b82821015610c8457838290600052602060002090600702016040518060e0016040529081600082015481526020016001820160009054906101000a900473ffffffffffffffffffffffffffffffffffffffff1673ffffffffffffffffffffffffffffffffffffffff1673ffffffffffffffffffffffffffffffffffffffff1681526020016002820160009054906101000a900473ffffffffffffffffffffffffffffffffffffffff1673ffffffffffffffffffffffffffffffffffffffff1673ffffffffffffffffffffffffffffffffffffffff16815260200160038201548152602001600482018054610bdf9061557a565b80601f0160208091040260200160405190810160405280929190818152602001828054610c0b9061557a565b8015610c585780601f10610c2d57610100808354040283529160200191610c58565b820191906000526020600020905b815481529060010190602001808311610c3b57829003601f168201915b505050505081526020016005820154815260200160068201548152505081526020019060010190610aec565b50505050815260200160098201805480602002602001604051908101604052809291908181526020016000905b82821015610e3557838290600052602060002090600502016040518060a001604052908160008201548152602001600182018054610cee9061557a565b80601f0160208091040260200160405190810160405280929190818152602001828054610d1a9061557a565b8015610d675780601f10610d3c57610100808354040283529160200191610d67565b820191906000526020600020905b815481529060010190602001808311610d4a57829003601f168201915b505050505081526020016002820160009054906101000a900473ffffffffffffffffffffffffffffffffffffffff1673ffffffffffffffffffffffffffffffffffffffff1673ffffffffffffffffffffffffffffffffffffffff1681526020016003820160009054906101000a900473ffffffffffffffffffffffffffffffffffffffff1673ffffffffffffffffffffffffffffffffffffffff1673ffffffffffffffffffffffffffffffffffffffff16815260200160048201548152505081526020019060010190610cb1565b505050508152602001600a8201805480602002602001604051908101604052809291908181526020016000905b82821015610fae57838290600052602060002090600702016040518060e0016040529081600082015481526020016001820160009054906101000a900473ffffffffffffffffffffffffffffffffffffffff1673ffffffffffffffffffffffffffffffffffffffff1673ffffffffffffffffffffffffffffffffffffffff1681526020016002820154815260200160038201548152602001600482018054610f099061557a565b80601f0160208091040260200160405190810160405280929190818152602001828054610f359061557a565b8015610f825780601f10610f5757610100808354040283529160200191610f82565b820191906000526020600020905b815481529060010190602001808311610f6557829003601f168201915b505050505081526020016005820154815260200160068201548152505081526020019060010190610e62565b5050505081525050815260200190600101906108f7565b50505050915050919050565b600080600090506000600190505b6000548111611073578373ffffffffffffffffffffffffffffffffffffffff166005600083815260200190815260200160002060000160009054906101000a900473ffffffffffffffffffffffffffffffffffffffff1673ffffffffffffffffffffffffffffffffffffffff1614156110605780915060019250505061107a565b808061106b906155ac565b915050610fdf565b5060009150505b919050565b600080606080606060006006600089815260200190815260200160002090508060000160009054906101000a900473ffffffffffffffffffffffffffffffffffffffff168160010160009054906101000a900473ffffffffffffffffffffffffffffffffffffffff168260030183600401846005018b8154811061112c577f4e487b7100000000000000000000000000000000000000000000000000000000600052603260045260246000fd5b90600052602060002090600b02016001018280546111499061557a565b80601f01602080910402602001604051908101604052809291908181526020018280546111759061557a565b80156111c25780601f10611197576101008083540402835291602001916111c2565b820191906000526020600020905b8154815290600101906020018083116111a557829003601f168201915b505050505092508180546111d59061557a565b80601f01602080910402602001604051908101604052809291908181526020018280546112019061557a565b801561124e5780601f106112235761010080835404028352916020019161124e565b820191906000526020600020905b81548152906001019060200180831161123157829003601f168201915b505050505091508080546112619061557a565b80601f016020809104026020016040519081016040528092919081815260200182805461128d9061557a565b80156112da5780601f106112af576101008083540402835291602001916112da565b820191906000526020600020905b8154815290600101906020018083116112bd57829003601f168201915b5050505050905095509550955095509550509295509295909350565b6060600061130383612b12565b905060056000828152602001908152602001600020600801805480602002602001604051908101604052809291908181526020016000905b828210156114d357838290600052602060002090600702016040518060e0016040529081600082015481526020016001820160009054906101000a900473ffffffffffffffffffffffffffffffffffffffff1673ffffffffffffffffffffffffffffffffffffffff1673ffffffffffffffffffffffffffffffffffffffff1681526020016002820160009054906101000a900473ffffffffffffffffffffffffffffffffffffffff1673ffffffffffffffffffffffffffffffffffffffff1673ffffffffffffffffffffffffffffffffffffffff1681526020016003820154815260200160048201805461142e9061557a565b80601f016020809104026020016040519081016040528092919081815260200182805461145a9061557a565b80156114a75780601f1061147c576101008083540402835291602001916114a7565b820191906000526020600020905b81548152906001019060200180831161148a57829003601f168201915b50505050508152602001600582015481526020016006820154815250508152602001906001019061133b565b50505050915050919050565b6000806114eb836120a1565b90506000811415611531576040517f08c379a000000000000000000000000000000000000000000000000000000000815260040161152890615086565b60405180910390fd5b60005b6006600083815260200190815260200160002060050180549050811015611625578473ffffffffffffffffffffffffffffffffffffffff166006600084815260200190815260200160002060050182815481106115ba577f4e487b7100000000000000000000000000000000000000000000000000000000600052603260045260246000fd5b90600052602060002090600b020160000160009054906101000a900473ffffffffffffffffffffffffffffffffffffffff1673ffffffffffffffffffffffffffffffffffffffff16141561161257809250505061162c565b808061161d906155ac565b915050611534565b5060009150505b92915050565b60035481565b600080600190505b60005481116116ce578773ffffffffffffffffffffffffffffffffffffffff166005600083815260200190815260200160002060000160009054906101000a900473ffffffffffffffffffffffffffffffffffffffff1673ffffffffffffffffffffffffffffffffffffffff1614156116bb578091506116ce565b80806116c6906155ac565b915050611640565b5060006005600083815260200190815260200160002090506116ee613a52565b600060018360060154611701919061549a565b90508082600001818152505088826020019073ffffffffffffffffffffffffffffffffffffffff16908173ffffffffffffffffffffffffffffffffffffffff16815250504282604001818152505086826060018181525050878260800181905250858260a0018181525050848260c001818152505082600a018290806001815401808255809150506001900390600052602060002090600702016000909190919091506000820151816000015560208201518160010160006101000a81548173ffffffffffffffffffffffffffffffffffffffff021916908373ffffffffffffffffffffffffffffffffffffffff16021790555060408201518160020155606082015181600301556080820151816004019080519060200190611825929190613aa5565b5060a0820151816005015560c082015181600601555050826006016000815480929190611851906155ac565b91905055507f5c47e3634659924d623877bfdf79d51d583d2a4ac998ef7934c4236e04e3c0ac818a8a428b8a8c60405161189197969594939291906151c6565b60405180910390a150505050505050505050565b60025481565b6000600180546118bb919061549a565b90506000600660008381526020019081526020016000209050848160000160006101000a81548173ffffffffffffffffffffffffffffffffffffffff021916908373ffffffffffffffffffffffffffffffffffffffff160217905550338160010160006101000a81548173ffffffffffffffffffffffffffffffffffffffff021916908373ffffffffffffffffffffffffffffffffffffffff16021790555083816003019080519060200190611972929190613aa5565b508281600401908051906020019061198b929190613aa5565b50600a829080600181540180825580915050600190039060005260206000200160009091909190915055600160008154809291906119c8906155ac565b91905055507fcbd1a30a0a55df92d36a288f76b9d6378b2f6dd3fe2f26ab52abf2d660518e188533848787604051611a04959493929190614e7f565b60405180910390a15050505050565b6000611a1e86612b12565b90506000611a2b836120a1565b90506000611a3988856114df565b90506000831415611a7f576040517f08c379a0000000000000000000000000000000000000000000000000000000008152600401611a76906150a6565b60405180910390fd5b6000821415611ac3576040517f08c379a0000000000000000000000000000000000000000000000000000000008152600401611aba90615086565b60405180910390fd5b6000600787604051611ad59190614e00565b90815260200160405180910390205490506000600560008681526020019081526020016000209050611b05613b2b565b600060018360080180549050611b1b919061549a565b90508082600001818152505087826020019073ffffffffffffffffffffffffffffffffffffffff16908173ffffffffffffffffffffffffffffffffffffffff16815250508a826040019073ffffffffffffffffffffffffffffffffffffffff16908173ffffffffffffffffffffffffffffffffffffffff168152505042826060018181525050898260800181905250838260a0018181525050888260c0018181525050826008018290806001815401808255809150506001900390600052602060002090600702016000909190919091506000820151816000015560208201518160010160006101000a81548173ffffffffffffffffffffffffffffffffffffffff021916908373ffffffffffffffffffffffffffffffffffffffff16021790555060408201518160020160006101000a81548173ffffffffffffffffffffffffffffffffffffffff021916908373ffffffffffffffffffffffffffffffffffffffff160217905550606082015181600301556080820151816004019080519060200190611caa929190613aa5565b5060a0820151816005015560c082015181600601555050600660008781526020019081526020016000206005018581548110611d0f577f4e487b7100000000000000000000000000000000000000000000000000000000600052603260045260246000fd5b90600052602060002090600b02016008018290806001815401808255809150506001900390600052602060002090600702016000909190919091506000820151816000015560208201518160010160006101000a81548173ffffffffffffffffffffffffffffffffffffffff021916908373ffffffffffffffffffffffffffffffffffffffff16021790555060408201518160020160006101000a81548173ffffffffffffffffffffffffffffffffffffffff021916908373ffffffffffffffffffffffffffffffffffffffff160217905550606082015181600301556080820151816004019080519060200190611e08929190613aa5565b5060a0820151816005015560c0820151816006015550507fb2e886a2484073911005b6c7ddbb8b992526fbea5ce4ce0c32d133fd002dcadd81898d8d888e42604051611e5a97969594939291906150e1565b60405180910390a1505050505050505050505050565b600080600090506000600190505b6003548111611f12578373ffffffffffffffffffffffffffffffffffffffff166008600083815260200190815260200160002060030160009054906101000a900473ffffffffffffffffffffffffffffffffffffffff1673ffffffffffffffffffffffffffffffffffffffff161415611eff57809150600192505050611f19565b8080611f0a906155ac565b915050611e7e565b5060009150505b919050565b60006060600080606060006005600088815260200190815260200160002090508060000160009054906101000a900473ffffffffffffffffffffffffffffffffffffffff16816001018260020154836003015484600401838054611f819061557a565b80601f0160208091040260200160405190810160405280929190818152602001828054611fad9061557a565b8015611ffa5780601f10611fcf57610100808354040283529160200191611ffa565b820191906000526020600020905b815481529060010190602001808311611fdd57829003601f168201915b5050505050935080805461200d9061557a565b80601f01602080910402602001604051908101604052809291908181526020018280546120399061557a565b80156120865780601f1061205b57610100808354040283529160200191612086565b820191906000526020600020905b81548152906001019060200180831161206957829003601f168201915b50505050509050955095509550955095505091939590929450565b600080600190505b6001548111612138578273ffffffffffffffffffffffffffffffffffffffff166006600083815260200190815260200160002060000160009054906101000a900473ffffffffffffffffffffffffffffffffffffffff1673ffffffffffffffffffffffffffffffffffffffff161415612125578091505061213e565b8080612130906155ac565b9150506120a9565b50600090505b919050565b600b818154811061215357600080fd5b906000526020600020016000915090505481565b6004818154811061217757600080fd5b90600052602060002090600b02016000915090508060000160009054906101000a900473ffffffffffffffffffffffffffffffffffffffff16908060010180546121c09061557a565b80601f01602080910402602001604051908101604052809291908181526020018280546121ec9061557a565b80156122395780601f1061220e57610100808354040283529160200191612239565b820191906000526020600020905b81548152906001019060200180831161221c57829003601f168201915b50505050509080600201549080600301549080600401805461225a9061557a565b80601f01602080910402602001604051908101604052809291908181526020018280546122869061557a565b80156122d35780601f106122a8576101008083540402835291602001916122d3565b820191906000526020600020905b8154815290600101906020018083116122b657829003601f168201915b5050505050908060050154908060060154908060070154905088565b6000600154905090565b60066020528060005260406000206000915090508060000160009054906101000a900473ffffffffffffffffffffffffffffffffffffffff16908060010160009054906101000a900473ffffffffffffffffffffffffffffffffffffffff169080600201549080600301805461236e9061557a565b80601f016020809104026020016040519081016040528092919081815260200182805461239a9061557a565b80156123e75780601f106123bc576101008083540402835291602001916123e7565b820191906000526020600020905b8154815290600101906020018083116123ca57829003601f168201915b5050505050908060040180546123fc9061557a565b80601f01602080910402602001604051908101604052809291908181526020018280546124289061557a565b80156124755780601f1061244a57610100808354040283529160200191612475565b820191906000526020600020905b81548152906001019060200180831161245857829003601f168201915b5050505050905085565b600a818154811061248f57600080fd5b906000526020600020016000915090505481565b60015481565b60006124b485612b12565b905060006124c1836120a1565b905060006124cf87856114df565b90506000831415612515576040517f08c379a000000000000000000000000000000000000000000000000000000000815260040161250c906150a6565b60405180910390fd5b6000821415612559576040517f08c379a000000000000000000000000000000000000000000000000000000000815260040161255090615086565b60405180910390fd5b6000600560008581526020019081526020016000209050612578613b94565b60006001836007015461258b919061549a565b90508082600001818152505088826020018190525086826040019073ffffffffffffffffffffffffffffffffffffffff16908173ffffffffffffffffffffffffffffffffffffffff168152505087826060019073ffffffffffffffffffffffffffffffffffffffff16908173ffffffffffffffffffffffffffffffffffffffff1681525050428260800181815250508260090182908060018154018082558091505060019003906000526020600020906005020160009091909190915060008201518160000155602082015181600101908051906020019061266e929190613aa5565b5060408201518160020160006101000a81548173ffffffffffffffffffffffffffffffffffffffff021916908373ffffffffffffffffffffffffffffffffffffffff16021790555060608201518160030160006101000a81548173ffffffffffffffffffffffffffffffffffffffff021916908373ffffffffffffffffffffffffffffffffffffffff160217905550608082015181600401555050600660008681526020019081526020016000206005018481548110612757577f4e487b7100000000000000000000000000000000000000000000000000000000600052603260045260246000fd5b90600052602060002090600b02016009018290806001815401808255809150506001900390600052602060002090600502016000909190919091506000820151816000015560208201518160010190805190602001906127b8929190613aa5565b5060408201518160020160006101000a81548173ffffffffffffffffffffffffffffffffffffffff021916908373ffffffffffffffffffffffffffffffffffffffff16021790555060608201518160030160006101000a81548173ffffffffffffffffffffffffffffffffffffffff021916908373ffffffffffffffffffffffffffffffffffffffff160217905550608082015181600401555050826007016000815480929190612868906155ac565b91905055507f929ad78c8b2ae3bd2d188cf57b75d877fc3d03f98628ae9b3f3881e78e9b820a818a898b426040516128a49594939291906152b2565b60405180910390a150505050505050505050565b600080600090506000600190505b600154811161295a578373ffffffffffffffffffffffffffffffffffffffff166006600083815260200190815260200160002060000160009054906101000a900473ffffffffffffffffffffffffffffffffffffffff1673ffffffffffffffffffffffffffffffffffffffff16141561294757809150600192505050612961565b8080612952906155ac565b9150506128c6565b5060009150505b919050565b6007818051602081018201805184825260208301602085012081835280955050505050506000915090505481565b60056020528060005260406000206000915090508060000160009054906101000a900473ffffffffffffffffffffffffffffffffffffffff16908060010180546129dd9061557a565b80601f0160208091040260200160405190810160405280929190818152602001828054612a099061557a565b8015612a565780601f10612a2b57610100808354040283529160200191612a56565b820191906000526020600020905b815481529060010190602001808311612a3957829003601f168201915b505050505090806002015490806003015490806004018054612a779061557a565b80601f0160208091040260200160405190810160405280929190818152602001828054612aa39061557a565b8015612af05780601f10612ac557610100808354040283529160200191612af0565b820191906000526020600020905b815481529060010190602001808311612ad357829003601f168201915b5050505050908060050154908060060154908060070154905088565b60005481565b600080600190505b6000548111612ba9578273ffffffffffffffffffffffffffffffffffffffff166005600083815260200190815260200160002060000160009054906101000a900473ffffffffffffffffffffffffffffffffffffffff1673ffffffffffffffffffffffffffffffffffffffff161415612b965780915050612baf565b8080612ba1906155ac565b915050612b1a565b50600090505b919050565b6000806000806060600080600080600190505b6000548111612c55578a73ffffffffffffffffffffffffffffffffffffffff166005600083815260200190815260200160002060000160009054906101000a900473ffffffffffffffffffffffffffffffffffffffff1673ffffffffffffffffffffffffffffffffffffffff161415612c4257809150612c55565b8080612c4d906155ac565b915050612bc7565b5060056000828152602001908152602001600020600a018981548110612ca4577f4e487b7100000000000000000000000000000000000000000000000000000000600052603260045260246000fd5b90600052602060002090600702016000015460056000838152602001908152602001600020600a018a81548110612d04577f4e487b7100000000000000000000000000000000000000000000000000000000600052603260045260246000fd5b906000526020600020906007020160010160009054906101000a900473ffffffffffffffffffffffffffffffffffffffff1660056000848152602001908152602001600020600a018b81548110612d84577f4e487b7100000000000000000000000000000000000000000000000000000000600052603260045260246000fd5b90600052602060002090600702016002015460056000858152602001908152602001600020600a018c81548110612de4577f4e487b7100000000000000000000000000000000000000000000000000000000600052603260045260246000fd5b90600052602060002090600702016003015460056000868152602001908152602001600020600a018d81548110612e44577f4e487b7100000000000000000000000000000000000000000000000000000000600052603260045260246000fd5b906000526020600020906007020160040160056000878152602001908152602001600020600a018e81548110612ea3577f4e487b7100000000000000000000000000000000000000000000000000000000600052603260045260246000fd5b90600052602060002090600702016005015460056000888152602001908152602001600020600a018f81548110612f03577f4e487b7100000000000000000000000000000000000000000000000000000000600052603260045260246000fd5b906000526020600020906007020160060154828054612f219061557a565b80601f0160208091040260200160405190810160405280929190818152602001828054612f4d9061557a565b8015612f9a5780601f10612f6f57610100808354040283529160200191612f9a565b820191906000526020600020905b815481529060010190602001808311612f7d57829003601f168201915b5050505050925097509750975097509750975097505092959891949750929550565b60008054905090565b60006001600054612fd6919061549a565b90506000612fe3336120a1565b90506000600560008481526020019081526020016000209050878160000160006101000a81548173ffffffffffffffffffffffffffffffffffffffff021916908373ffffffffffffffffffffffffffffffffffffffff16021790555086816001019080519060200190613057929190613aa5565b5085816002018190555084816003018190555083816004019080519060200190613082929190613aa5565b506000816005018190555060008160060181905550600081600701819055506009839080600181540180825580915050600190039060005260206000200160009091909190915055600660008381526020019081526020016000206005018190806001815401808255809150506001900390600052602060002090600b02016000909190919091506000820160009054906101000a900473ffffffffffffffffffffffffffffffffffffffff168160000160006101000a81548173ffffffffffffffffffffffffffffffffffffffff021916908373ffffffffffffffffffffffffffffffffffffffff16021790555060018201816001019080546131859061557a565b613190929190613bef565b50600282015481600201556003820154816003015560048201816004019080546131b99061557a565b6131c4929190613bef565b5060058201548160050155600682015481600601556007820154816007015560088201816008019080546131f9929190613c7c565b506009820181600901908054613210929190613dea565b50600a820181600a01908054613227929190613f44565b50505060008081548092919061323c906155ac565b91905055507f47a352a7254ef6cf17d89840a3b84756bedb0bcc7d21319db436bfba2cd924a783898989898960405161327a96959493929190615157565b60405180910390a15050505050505050565b6009818154811061329c57600080fd5b906000526020600020016000915090505481565b600c81815481106132c057600080fd5b906000526020600020016000915090505481565b60606000600154141561331c576040517f08c379a000000000000000000000000000000000000000000000000000000000815260040161331390615086565b60405180910390fd5b60066000838152602001908152602001600020600501805480602002602001604051908101604052809291908181526020016000905b82821015613a2057838290600052602060002090600b0201604051806101600160405290816000820160009054906101000a900473ffffffffffffffffffffffffffffffffffffffff1673ffffffffffffffffffffffffffffffffffffffff1673ffffffffffffffffffffffffffffffffffffffff1681526020016001820180546133dc9061557a565b80601f01602080910402602001604051908101604052809291908181526020018280546134089061557a565b80156134555780601f1061342a57610100808354040283529160200191613455565b820191906000526020600020905b81548152906001019060200180831161343857829003601f168201915b5050505050815260200160028201548152602001600382015481526020016004820180546134829061557a565b80601f01602080910402602001604051908101604052809291908181526020018280546134ae9061557a565b80156134fb5780601f106134d0576101008083540402835291602001916134fb565b820191906000526020600020905b8154815290600101906020018083116134de57829003601f168201915b5050505050815260200160058201548152602001600682015481526020016007820154815260200160088201805480602002602001604051908101604052809291908181526020016000905b828210156136df57838290600052602060002090600702016040518060e0016040529081600082015481526020016001820160009054906101000a900473ffffffffffffffffffffffffffffffffffffffff1673ffffffffffffffffffffffffffffffffffffffff1673ffffffffffffffffffffffffffffffffffffffff1681526020016002820160009054906101000a900473ffffffffffffffffffffffffffffffffffffffff1673ffffffffffffffffffffffffffffffffffffffff1673ffffffffffffffffffffffffffffffffffffffff1681526020016003820154815260200160048201805461363a9061557a565b80601f01602080910402602001604051908101604052809291908181526020018280546136669061557a565b80156136b35780601f10613688576101008083540402835291602001916136b3565b820191906000526020600020905b81548152906001019060200180831161369657829003601f168201915b505050505081526020016005820154815260200160068201548152505081526020019060010190613547565b50505050815260200160098201805480602002602001604051908101604052809291908181526020016000905b8282101561389057838290600052602060002090600502016040518060a0016040529081600082015481526020016001820180546137499061557a565b80601f01602080910402602001604051908101604052809291908181526020018280546137759061557a565b80156137c25780601f10613797576101008083540402835291602001916137c2565b820191906000526020600020905b8154815290600101906020018083116137a557829003601f168201915b505050505081526020016002820160009054906101000a900473ffffffffffffffffffffffffffffffffffffffff1673ffffffffffffffffffffffffffffffffffffffff1673ffffffffffffffffffffffffffffffffffffffff1681526020016003820160009054906101000a900473ffffffffffffffffffffffffffffffffffffffff1673ffffffffffffffffffffffffffffffffffffffff1673ffffffffffffffffffffffffffffffffffffffff1681526020016004820154815250508152602001906001019061370c565b505050508152602001600a8201805480602002602001604051908101604052809291908181526020016000905b82821015613a0957838290600052602060002090600702016040518060e0016040529081600082015481526020016001820160009054906101000a900473ffffffffffffffffffffffffffffffffffffffff1673ffffffffffffffffffffffffffffffffffffffff1673ffffffffffffffffffffffffffffffffffffffff16815260200160028201548152602001600382015481526020016004820180546139649061557a565b80601f01602080910402602001604051908101604052809291908181526020018280546139909061557a565b80156139dd5780601f106139b2576101008083540402835291602001916139dd565b820191906000526020600020905b8154815290600101906020018083116139c057829003601f168201915b5050505050815260200160058201548152602001600682015481525050815260200190600101906138bd565b505050508152505081526020019060010190613352565b505050509050919050565b80600783604051613a3c9190614e00565b9081526020016040518091039020819055505050565b6040518060e0016040528060008152602001600073ffffffffffffffffffffffffffffffffffffffff16815260200160008152602001600081526020016060815260200160008152602001600081525090565b828054613ab19061557a565b90600052602060002090601f016020900481019282613ad35760008555613b1a565b82601f10613aec57805160ff1916838001178555613b1a565b82800160010185558215613b1a579182015b82811115613b19578251825591602001919060010190613afe565b5b509050613b279190614055565b5090565b6040518060e0016040528060008152602001600073ffffffffffffffffffffffffffffffffffffffff168152602001600073ffffffffffffffffffffffffffffffffffffffff168152602001600081526020016060815260200160008152602001600081525090565b6040518060a001604052806000815260200160608152602001600073ffffffffffffffffffffffffffffffffffffffff168152602001600073ffffffffffffffffffffffffffffffffffffffff168152602001600081525090565b828054613bfb9061557a565b90600052602060002090601f016020900481019282613c1d5760008555613c6b565b82601f10613c2e5780548555613c6b565b82800160010185558215613c6b57600052602060002091601f016020900482015b82811115613c6a578254825591600101919060010190613c4f565b5b509050613c789190614055565b5090565b828054828255906000526020600020906007028101928215613dd95760005260206000209160070282015b82811115613dd8578282600082015481600001556001820160009054906101000a900473ffffffffffffffffffffffffffffffffffffffff168160010160006101000a81548173ffffffffffffffffffffffffffffffffffffffff021916908373ffffffffffffffffffffffffffffffffffffffff1602179055506002820160009054906101000a900473ffffffffffffffffffffffffffffffffffffffff168160020160006101000a81548173ffffffffffffffffffffffffffffffffffffffff021916908373ffffffffffffffffffffffffffffffffffffffff160217905550600382015481600301556004820181600401908054613da79061557a565b613db2929190613bef565b506005820154816005015560068201548160060155505091600701919060070190613ca7565b5b509050613de69190614072565b5090565b828054828255906000526020600020906005028101928215613f335760005260206000209160050282015b82811115613f32578282600082015481600001556001820181600101908054613e3d9061557a565b613e48929190613bef565b506002820160009054906101000a900473ffffffffffffffffffffffffffffffffffffffff168160020160006101000a81548173ffffffffffffffffffffffffffffffffffffffff021916908373ffffffffffffffffffffffffffffffffffffffff1602179055506003820160009054906101000a900473ffffffffffffffffffffffffffffffffffffffff168160030160006101000a81548173ffffffffffffffffffffffffffffffffffffffff021916908373ffffffffffffffffffffffffffffffffffffffff16021790555060048201548160040155505091600501919060050190613e15565b5b509050613f409190614107565b5090565b8280548282559060005260206000209060070281019282156140445760005260206000209160070282015b82811115614043578282600082015481600001556001820160009054906101000a900473ffffffffffffffffffffffffffffffffffffffff168160010160006101000a81548173ffffffffffffffffffffffffffffffffffffffff021916908373ffffffffffffffffffffffffffffffffffffffff160217905550600282015481600201556003820154816003015560048201816004019080546140129061557a565b61401d929190613bef565b506005820154816005015560068201548160060155505091600701919060070190613f6f565b5b509050614051919061418c565b5090565b5b8082111561406e576000816000905550600101614056565b5090565b5b80821115614103576000808201600090556001820160006101000a81549073ffffffffffffffffffffffffffffffffffffffff02191690556002820160006101000a81549073ffffffffffffffffffffffffffffffffffffffff021916905560038201600090556004820160006140ea9190614202565b6005820160009055600682016000905550600701614073565b5090565b5b80821115614188576000808201600090556001820160006141299190614202565b6002820160006101000a81549073ffffffffffffffffffffffffffffffffffffffff02191690556003820160006101000a81549073ffffffffffffffffffffffffffffffffffffffff0219169055600482016000905550600501614108565b5090565b5b808211156141fe576000808201600090556001820160006101000a81549073ffffffffffffffffffffffffffffffffffffffff0219169055600282016000905560038201600090556004820160006141e59190614202565b600582016000905560068201600090555060070161418d565b5090565b50805461420e9061557a565b6000825580601f10614220575061423f565b601f01602090049060005260206000209081019061423e9190614055565b5b50565b60006142556142508461533d565b61530c565b90508281526020810184848401111561426d57600080fd5b614278848285615538565b509392505050565b60008135905061428f81615693565b92915050565b600082601f8301126142a657600080fd5b81356142b6848260208601614242565b91505092915050565b6000813590506142ce816156aa565b92915050565b6000602082840312156142e657600080fd5b60006142f484828501614280565b91505092915050565b6000806040838503121561431057600080fd5b600061431e85828601614280565b925050602061432f85828601614280565b9150509250929050565b600080600080600060a0868803121561435157600080fd5b600061435f88828901614280565b955050602061437088828901614280565b945050604086013567ffffffffffffffff81111561438d57600080fd5b61439988828901614295565b93505060606143aa888289016142bf565b92505060806143bb88828901614280565b9150509295509295909350565b60008060008060008060c087890312156143e157600080fd5b60006143ef89828a01614280565b965050602061440089828a01614280565b955050604087013567ffffffffffffffff81111561441d57600080fd5b61442989828a01614295565b945050606061443a89828a016142bf565b935050608061444b89828a016142bf565b92505060a061445c89828a016142bf565b9150509295509295509295565b6000806000806080858703121561447f57600080fd5b600061448d87828801614280565b945050602085013567ffffffffffffffff8111156144aa57600080fd5b6144b687828801614295565b93505060406144c787828801614280565b92505060606144d887828801614280565b91505092959194509250565b6000806000606084860312156144f957600080fd5b600061450786828701614280565b935050602084013567ffffffffffffffff81111561452457600080fd5b61453086828701614295565b925050604084013567ffffffffffffffff81111561454d57600080fd5b61455986828701614295565b9150509250925092565b600080600080600060a0868803121561457b57600080fd5b600061458988828901614280565b955050602086013567ffffffffffffffff8111156145a657600080fd5b6145b288828901614295565b94505060406145c3888289016142bf565b93505060606145d4888289016142bf565b925050608086013567ffffffffffffffff8111156145f157600080fd5b6145fd88828901614295565b9150509295509295909350565b6000806040838503121561461d57600080fd5b600061462b85828601614280565b925050602061463c858286016142bf565b9150509250929050565b60006020828403121561465857600080fd5b600082013567ffffffffffffffff81111561467257600080fd5b61467e84828501614295565b91505092915050565b6000806040838503121561469a57600080fd5b600083013567ffffffffffffffff8111156146b457600080fd5b6146c085828601614295565b92505060206146d1858286016142bf565b9150509250929050565b6000602082840312156146ed57600080fd5b60006146fb848285016142bf565b91505092915050565b6000806040838503121561471757600080fd5b6000614725858286016142bf565b9250506020614736858286016142bf565b9150509250929050565b600061474c8383614b29565b905092915050565b60006147608383614c34565b905092915050565b60006147748383614cd0565b905092915050565b60006147888383614d6c565b905092915050565b614799816154f0565b82525050565b6147a8816154f0565b82525050565b60006147b9826153ad565b6147c38185615418565b9350836020820285016147d58561536d565b8060005b8581101561481157848403895281516147f28582614740565b94506147fd836153e4565b925060208a019950506001810190506147d9565b50829750879550505050505092915050565b600061482e826153b8565b6148388185615429565b93508360208202850161484a8561537d565b8060005b8581101561488657848403895281516148678582614754565b9450614872836153f1565b925060208a0199505060018101905061484e565b50829750879550505050505092915050565b60006148a3826153b8565b6148ad818561543a565b9350836020820285016148bf8561537d565b8060005b858110156148fb57848403895281516148dc8582614754565b94506148e7836153f1565b925060208a019950506001810190506148c3565b50829750879550505050505092915050565b6000614918826153c3565b614922818561544b565b9350836020820285016149348561538d565b8060005b8581101561497057848403895281516149518582614768565b945061495c836153fe565b925060208a01995050600181019050614938565b50829750879550505050505092915050565b600061498d826153ce565b614997818561545c565b9350836020820285016149a98561539d565b8060005b858110156149e557848403895281516149c6858261477c565b94506149d18361540b565b925060208a019950506001810190506149ad565b50829750879550505050505092915050565b614a0081615502565b82525050565b6000614a11826153d9565b614a1b818561546d565b9350614a2b818560208601615547565b614a3481615682565b840191505092915050565b6000614a4a826153d9565b614a54818561547e565b9350614a64818560208601615547565b614a6d81615682565b840191505092915050565b6000614a83826153d9565b614a8d818561548f565b9350614a9d818560208601615547565b80840191505092915050565b6000614ab660108361547e565b91507f446f63746f72206e6f7420666f756e64000000000000000000000000000000006000830152602082019050919050565b6000614af660118361547e565b91507f50617469656e74206e6f7420666f756e640000000000000000000000000000006000830152602082019050919050565b600061016083016000830151614b426000860182614790565b5060208301518482036020860152614b5a8282614a06565b9150506040830151614b6f6040860182614de2565b506060830151614b826060860182614de2565b5060808301518482036080860152614b9a8282614a06565b91505060a0830151614baf60a0860182614de2565b5060c0830151614bc260c0860182614de2565b5060e0830151614bd560e0860182614de2565b50610100830151848203610100860152614bef8282614823565b915050610120830151848203610120860152614c0b8282614982565b915050610140830151848203610140860152614c27828261490d565b9150508091505092915050565b600060e083016000830151614c4c6000860182614de2565b506020830151614c5f6020860182614790565b506040830151614c726040860182614790565b506060830151614c856060860182614de2565b5060808301518482036080860152614c9d8282614a06565b91505060a0830151614cb260a0860182614de2565b5060c0830151614cc560c0860182614de2565b508091505092915050565b600060e083016000830151614ce86000860182614de2565b506020830151614cfb6020860182614790565b506040830151614d0e6040860182614de2565b506060830151614d216060860182614de2565b5060808301518482036080860152614d398282614a06565b91505060a0830151614d4e60a0860182614de2565b5060c0830151614d6160c0860182614de2565b508091505092915050565b600060a083016000830151614d846000860182614de2565b5060208301518482036020860152614d9c8282614a06565b9150506040830151614db16040860182614790565b506060830151614dc46060860182614790565b506080830151614dd76080860182614de2565b508091505092915050565b614deb8161552e565b82525050565b614dfa8161552e565b82525050565b6000614e0c8284614a78565b915081905092915050565b600060a082019050614e2c600083018861479f565b614e39602083018761479f565b8181036040830152614e4b8186614a3f565b90508181036060830152614e5f8185614a3f565b90508181036080830152614e738184614a3f565b90509695505050505050565b600060a082019050614e94600083018861479f565b614ea1602083018761479f565b614eae6040830186614df1565b8181036060830152614ec08185614a3f565b90508181036080830152614ed48184614a3f565b90509695505050505050565b600060a082019050614ef5600083018861479f565b8181036020830152614f078187614a3f565b9050614f166040830186614df1565b614f23606083018561479f565b614f306080830184614df1565b9695505050505050565b600060a082019050614f4f600083018861479f565b8181036020830152614f618187614a3f565b9050614f706040830186614df1565b614f7d6060830185614df1565b8181036080830152614f8f8184614a3f565b90509695505050505050565b600061010082019050614fb1600083018b61479f565b8181036020830152614fc3818a614a3f565b9050614fd26040830189614df1565b614fdf6060830188614df1565b8181036080830152614ff18187614a3f565b905061500060a0830186614df1565b61500d60c0830185614df1565b61501a60e0830184614df1565b9998505050505050505050565b6000602082019050818103600083015261504181846147ae565b905092915050565b600060208201905081810360008301526150638184614898565b905092915050565b600060208201905061508060008301846149f7565b92915050565b6000602082019050818103600083015261509f81614aa9565b9050919050565b600060208201905081810360008301526150bf81614ae9565b9050919050565b60006020820190506150db6000830184614df1565b92915050565b600060e0820190506150f6600083018a614df1565b615103602083018961479f565b615110604083018861479f565b81810360608301526151228187614a3f565b90506151316080830186614df1565b61513e60a0830185614df1565b61514b60c0830184614df1565b98975050505050505050565b600060c08201905061516c6000830189614df1565b615179602083018861479f565b818103604083015261518b8187614a3f565b905061519a6060830186614df1565b6151a76080830185614df1565b81810360a08301526151b98184614a3f565b9050979650505050505050565b600060e0820190506151db600083018a614df1565b6151e8602083018961479f565b81810360408301526151fa8188614a3f565b90506152096060830187614df1565b6152166080830186614df1565b61522360a0830185614df1565b61523060c0830184614df1565b98975050505050505050565b600060e082019050615251600083018a614df1565b61525e602083018961479f565b61526b6040830188614df1565b6152786060830187614df1565b818103608083015261528a8186614a3f565b905061529960a0830185614df1565b6152a660c0830184614df1565b98975050505050505050565b600060a0820190506152c76000830188614df1565b81810360208301526152d98187614a3f565b90506152e8604083018661479f565b6152f5606083018561479f565b6153026080830184614df1565b9695505050505050565b6000604051905081810181811067ffffffffffffffff8211171561533357615332615653565b5b8060405250919050565b600067ffffffffffffffff82111561535857615357615653565b5b601f19601f8301169050602081019050919050565b6000819050602082019050919050565b6000819050602082019050919050565b6000819050602082019050919050565b6000819050602082019050919050565b600081519050919050565b600081519050919050565b600081519050919050565b600081519050919050565b600081519050919050565b6000602082019050919050565b6000602082019050919050565b6000602082019050919050565b6000602082019050919050565b600082825260208201905092915050565b600082825260208201905092915050565b600082825260208201905092915050565b600082825260208201905092915050565b600082825260208201905092915050565b600082825260208201905092915050565b600082825260208201905092915050565b600081905092915050565b60006154a58261552e565b91506154b08361552e565b9250827fffffffffffffffffffffffffffffffffffffffffffffffffffffffffffffffff038211156154e5576154e46155f5565b5b828201905092915050565b60006154fb8261550e565b9050919050565b60008115159050919050565b600073ffffffffffffffffffffffffffffffffffffffff82169050919050565b6000819050919050565b82818337600083830152505050565b60005b8381101561556557808201518184015260208101905061554a565b83811115615574576000848401525b50505050565b6000600282049050600182168061559257607f821691505b602082108114156155a6576155a5615624565b5b50919050565b60006155b78261552e565b91507fffffffffffffffffffffffffffffffffffffffffffffffffffffffffffffffff8214156155ea576155e96155f5565b5b600182019050919050565b7f4e487b7100000000000000000000000000000000000000000000000000000000600052601160045260246000fd5b7f4e487b7100000000000000000000000000000000000000000000000000000000600052602260045260246000fd5b7f4e487b7100000000000000000000000000000000000000000000000000000000600052604160045260246000fd5b6000601f19601f8301169050919050565b61569c816154f0565b81146156a757600080fd5b50565b6156b38161552e565b81146156be57600080fd5b5056fea26469706673582212202ca282fad08f631502068367094e84ebf698f8addfbef1ab859f46c9034afe5064736f6c63430008000033",
  "immutableReferences": {},
  "source": "pragma solidity ^ 0.8.0;\n\ncontract Users {\n    \n    \tuint public patientCount;\n\t\tuint public doctorCount;\n\t\tuint public pharmacyCount;\n\t\tuint public healthCarecount;\n\t\tPatient [] public patientrecords;\n\t\tstruct Patient {\n\t\t\t\taddress patientAddress;\n\t\t\t\tstring name;\n\t\t\t\tuint age;\n\t\t\t\tuint contact;\n\t\t\t\tstring userAddress;\n\t\t\t\tuint prescriptionCount;\n\t\t\t\tuint receiptCount;\n\t\t\t\tuint recordCount;\n\t\t\t\tPrescription[] prescriptions;\n\t\t\t\tRecord[] records;\n\t\t\t\tReceipt[] receipts;\n\n\t\t}\n\t\tstruct Doctor {\n\t\t\taddress doctorAddress;\n\t\t\taddress healthCareAddress;\n\t\t\tuint id;\n\t\t\tstring name;\n\t\t\tstring designation;\n\t\t\tPatient [] patients;\n\t\t}\n\t\t\n\n\t\tstruct HealthCare {\n\t\t\t\taddress chainAddress;\n\t\t\t\tstring name;\n\t\t\t\tuint contact;\n\t\t\t\taddress healthCareAddress;\n\t\t\t\tuint patientsCount;\n\t\t}\n\n\t\tstruct Record {\n\t\t\t\tuint recordid;\n\t\t\t\tstring disease;\n\t\t\t\taddress doctorAddress;\n\t\t\t\taddress chainAddress;\n\t\t\t\tuint256 timestamp;\n\t\t}\n\n\t\tstruct Receipt {\n\t\t\t\tuint receiptid;\n\t\t\t\taddress chainAddress;\n\t\t\t\tuint256 timestamp;\n\t\t\t\tuint totalcost;\n\t\t\t\tstring drugname;\n\t\t\t\tuint drugCount;\n\t\t\t\tuint256 receiptNumber;\n\t\t}\n\n\t\tstruct Prescription {\n\t\t\t\tuint prescriptionid;\n\t\t\t\taddress doctorAddress;\n\t\t\t\taddress chainAddress;\n\t\t\t\tuint256 timestamp;\n\t\t\t\tstring drugname;\n\t\t\t\tuint drugCost;\n\t\t\t\tuint drugCount;\n\t\t}\n\n\n\t\tevent AddPatient(\n\t\t\t\tuint id,\n\t\t\t\taddress patientAddress,\n\t\t\t\tstring name,\n\t\t\t\tuint age,\n\t\t\t\tuint contact,\n\t\t\t\tstring userAddress\n\t\t);\n\t\tevent AdddDoctor(\n\t\t\t\taddress doctorAddress,\n\t\t\t\taddress healthCareAddress,\n\t\t\t\tuint id,\n\t\t\t\tstring name,\n\t\t\t\tstring designation\n\t\t);\n\t\tevent PatientExists(\n\t\t\t\tstring description\n\t\t);\n\n\t\tevent AddPrescription(\n\t\t\t\tuint prescriptionid,\n\t\t\t\taddress doctorAddress,\n\t\t\t\taddress chainAddress,\n\t\t\t\tstring drugname,\n\t\t\t\tuint drugCost,\n\t\t\t\tuint drugCount,\n\t\t\t\tuint256 timestamp\n\t\t);\n\n\t\tevent AddRecord(\n\t\t\t\tuint recordid,\n\t\t\t\tstring disease,\n\t\t\t\taddress doctorAddress,\n\t\t\t\taddress chainAddress,\n\t\t\t\tuint256 timestamp\n\t\t);\n\n\t\tevent AddReceipt(\n\t\t\t\tuint receiptid,\n\t\t\t\taddress chainAddress,\n\t\t\t\tstring drugname,\n\t\t\t\tuint256 timestamp,\n\t\t\t\tuint totalcost,\n\t\t\t\tuint256 receiptNumber,\n\t\t\t\tuint drugCount\n\t\t);\n\n\t\tmapping (uint => Patient) public patients;\n\t\tmapping (uint => Doctor) public doctors;\n\t\tmapping(string => uint) public drugCosts;\n\t\tmapping (uint => HealthCare) public healthCares;\n\t\tuint[] public patientsList;\n\t\tuint[] public doctorsList;\n\t\tuint[] public drugsList;\n\t\tuint[] public healthCarelist;\n\n\t\n\nfunction loginDoctor(address _doctorAddress) public view returns (bool) {\n    uint doctorIndex = 0;\n    for (uint i = 1; i <= doctorCount; i++) {\n        if (doctors[i].doctorAddress == _doctorAddress) {\n            doctorIndex = i;\n            return true;\n        }\n    }\n    return false;\n}\nfunction loginHealthCare(address _healthCareAddress) public view returns (bool) {\n    uint healthCareIndex = 0;\n    for (uint i = 1; i <= healthCarecount; i++) {\n        if (healthCares[i].healthCareAddress == _healthCareAddress) {\n            healthCareIndex = i;\n            return true;\n        }\n    }\n    return false;\n}\nfunction loginPatient(address _patientAddress) public view returns (bool) {\n    uint patientIndex = 0;\n    for (uint i = 1; i <= patientCount; i++) {\n        if (patients[i].patientAddress == _patientAddress) {\n            patientIndex= i;\n            return true;\n        }\n    }\n    return false;\n}\n\t\t\tfunction setDoctor(address _doctorAddress, string memory _name, string memory _designation) public {\n\t\t\t\tuint id = doctorCount + 1;\n\t\t\t\tDoctor storage doctor = doctors[id];\n\n\t\t\t\tdoctor.doctorAddress = _doctorAddress;\n\t\t\t\tdoctor.healthCareAddress = msg.sender;\n\t\t\t\tdoctor.name = _name;\n\t\t\t\tdoctor.designation = _designation;\n\n\t\t\t\tdoctorsList.push(id);\n\t\t\t\tdoctorCount++;\n\t\t\t\temit AdddDoctor(_doctorAddress, msg.sender, id, _name,_designation );\n\t\t}\n\n\n\t\tfunction setPatient(address _patientAddress, string memory _name, uint _age, uint _contact, string memory _userAddress) public {\n\t\t\t\tuint id = patientCount + 1;\n\t\t\t\tuint doctorIndex = getDoctorIndex(msg.sender);\n\t\t\t\tPatient storage patient = patients[id];\n\t\t\t\tpatient.patientAddress = _patientAddress;\n\t\t\t\tpatient.name = _name;\n\t\t\t\tpatient.age = _age;\n\t\t\t\tpatient.contact = _contact;\n\t\t\t\tpatient.userAddress = _userAddress;\n\t\t\t\tpatient.prescriptionCount = 0;\n\t\t\t\tpatient.receiptCount = 0;\n\t\t\t\tpatient.recordCount = 0;\n\n\t\t\t\tpatientsList.push(id);\n\t\t\t\tdoctors[doctorIndex].patients.push(patient);\n\n\t\t\t\tpatientCount++;\n\t\t\t\t\n\t\t\t\temit AddPatient(id, _patientAddress, _name, _age, _contact, _userAddress);\n\t\t}\n\n\t\tfunction setDrugCost(string memory drugName, uint cost) public {\n        drugCosts[drugName] = cost;\n    }\n\t\t\nfunction setDiagnosisfromAddress(address _patientAddress, string memory _disease, address _chainAddress, address _doctorAddress) public {\n    uint patientIndex = getPatientIndex(_patientAddress);\n    uint doctorIndex = getDoctorIndex(_doctorAddress);\n    uint patientIndoctor = getPatientIndexfromDoctor(_patientAddress, _doctorAddress);\n    require(patientIndex != 0, \"Patient not found\");\n    require(doctorIndex != 0, \"Doctor not found\");\n\n    Patient storage patient = patients[patientIndex];\n    Record memory temp;\n    uint id = patient.recordCount + 1;\n    temp.recordid = id;\n    temp.disease = _disease;\n\ttemp.doctorAddress = _doctorAddress;\n    temp.chainAddress = _chainAddress;\n    temp.timestamp = block.timestamp;\n    patient.records.push(temp);\n    doctors[doctorIndex].patients[patientIndoctor].records.push(temp);\n    patient.recordCount++;\n\n    emit AddRecord(id, _disease, _doctorAddress, _chainAddress, block.timestamp);\n}\nfunction setPrescriptionfromAddress(address _patientAddress, address _chainAddress, string memory _drugname, uint _drugCount, address _doctorAddress) public {\n    uint patientIndex = getPatientIndex(_patientAddress);\n    uint doctorIndex = getDoctorIndex(_doctorAddress);\n    uint patientIndoctor = getPatientIndexfromDoctor(_patientAddress, _doctorAddress);\n    require(patientIndex != 0, \"Patient not found\");\n    require(doctorIndex != 0, \"Doctor not found\");\n\n    uint drugCost = drugCosts[_drugname];\n\n    Patient storage patient = patients[patientIndex];\n    Prescription memory temp;\n    uint id = patient.prescriptions.length + 1;\n    temp.prescriptionid = id;\n    temp.doctorAddress = _doctorAddress;\n    temp.chainAddress = _chainAddress;\n    temp.timestamp = block.timestamp;\n    temp.drugname = _drugname;\n\ttemp.drugCost = drugCost;\n    temp.drugCount = _drugCount;\n\n    patient.prescriptions.push(temp); // add the new prescription object to the patient's prescriptions array\n    doctors[doctorIndex].patients[patientIndoctor].prescriptions.push(temp);\n\n    emit AddPrescription(id, _doctorAddress, _chainAddress, _drugname, drugCost, _drugCount, block.timestamp);\n}\n\n\t\tfunction getPatientCount() public view returns (uint) {\n\t\t\t\treturn patientCount;\n\t\t}\n\n\t\tfunction getPatientfromID(uint _id) public view returns (address, string memory, uint, uint, string memory) {\n\t\t\t\tPatient storage patient = patients[_id];\n\t\t\t\treturn (patient.patientAddress, patient.name, patient.age, patient.contact, patient.userAddress);\n\t\t}\n\t\tfunction getDoctorfromID(uint _id, uint _pid) public view returns (address, address, string memory, string memory, string memory) {\n\t\t\t\tDoctor storage doctor = doctors[_id];\n\t\t\t\treturn (doctor.doctorAddress, doctor.healthCareAddress, doctor.name, doctor.designation, doctor.patients[_pid].name);\n\t\t}\n\n\n\t\t\n\t\t\n\n\n\n\nfunction getReceiptfromAddress(address _patientAddress, uint _index) view public returns (uint,address,uint256,uint,string memory,uint,uint256) {\n\t\tuint patientIndex = 0;\n\t\tfor (uint i = 1; i <= patientCount; i++) {\n\t\t\t\tif (patients[i].patientAddress == _patientAddress) {\n\t\t\t\t\t\tpatientIndex = i;\n\t\t\t\t\t\tbreak;\n\t\t\t\t}\n\t\t}\n\t\n\t\treturn (\n\t\t\t\tpatients[patientIndex].receipts[_index].receiptid,\n\t\tpatients[patientIndex].receipts[_index].chainAddress,\n\t\tpatients[patientIndex].receipts[_index].timestamp,\n\t\tpatients[patientIndex].receipts[_index].totalcost,\n\t\tpatients[patientIndex].receipts[_index].drugname,\n\t\tpatients[patientIndex].receipts[_index].drugCount,\n\t\tpatients[patientIndex].receipts[_index].receiptNumber\n        \n\t\t);\n}\n\n    function getReceipt(address _patientAddress) public view returns (Prescription [] memory) {\n\t\tuint patientIndex = getPatientIndex(_patientAddress);\n\t\treturn patients[patientIndex].prescriptions;\n\t\t}\n\n\nfunction setReceiptfromAddress(address _patientAddress,address _chainAddress,string memory _drugname,uint _totalcost,uint _drugCount, uint256 _receiptNumber) public {\n\t\tuint patientIndex = 0;\n\t\t\t\t\t\t\t\tfor (uint i = 1; i <= patientCount; i++) {\n\t\t\t\t\t\t\t\t\t\tif (patients[i].patientAddress == _patientAddress) {\n\t\t\t\t\t\t\t\t\t\tpatientIndex = i;\n\t\t\t\t\t\t\t\tbreak;\n\t\t\t\t\t\t\t\t }\n\t\t\t\t\t\t}\n\t\tPatient storage patient = patients[patientIndex];\n\t\tReceipt memory temp;\n\t\tuint id = patient.receiptCount + 1;\n\t\ttemp.receiptid = id;\n\t\ttemp.chainAddress = _chainAddress;\n\t\ttemp.timestamp = block.timestamp;\n\t\ttemp.totalcost = _totalcost;\n\t\ttemp.drugname = _drugname;\n\t\ttemp.drugCount = _drugCount;\n\t\ttemp.receiptNumber =_receiptNumber;\n\t\tpatient.receipts.push(temp);\n\t\tpatient.receiptCount++;\n\n\t\temit AddReceipt(id,_chainAddress,_drugname,block.timestamp,_totalcost,_receiptNumber,_drugCount);\n}\n\n\n\n\n\nfunction getDoctorIndex(address _doctorAddress) public view returns (uint) {\n    for (uint i = 1; i <= doctorCount; i++) {\n        if (doctors[i].doctorAddress == _doctorAddress) {\n            return i;\n        }\n    }\n    return 0;\n}\n\nfunction getPatientIndex(address _patientAddress) public view returns (uint) {\n    for (uint i = 1; i <= patientCount; i++) {\n        if (patients[i].patientAddress == _patientAddress) {\n            return i;\n        }\n    }\n    return 0;\n}\n\nfunction getPatientIndexfromDoctor(address _patientAddress, address _doctorAddress) public view returns (uint) {\n    uint doctorIndex = getDoctorIndex(_doctorAddress);\n    require(doctorIndex != 0, \"Doctor not found\");\n\n    for (uint i = 0; i < doctors[doctorIndex].patients.length; i++) {\n        if (doctors[doctorIndex].patients[i].patientAddress == _patientAddress) {\n            return i;\n        }\n    }\n    return 0;\n}\n\tfunction getPatientsByDoctor(address _doctorAddress) public view returns (Patient[] memory) {\n    uint doctorIndex = getDoctorIndex(_doctorAddress);\n    require(doctorIndex != 0, \"Doctor not found\");\n\n    return doctors[doctorIndex].patients;\n}\n\n\tfunction getPatientsByDoctorIndex(uint doctorIndex) public view returns (Patient[] memory) {\n    require(doctorCount != 0, \"Doctor not found\");\n    return doctors[doctorIndex].patients;\n\t}\n\tfunction docount () public view returns (uint){\n\t\treturn doctorCount;\n\t}\n\t\n\n\n\t\n}\n",
  "sourcePath": "E:\\Project\\MedicalChain-master\\MedicalChain-master\\contracts\\Users.sol",
  "compiler": {
    "name": "solc",
    "version": "0.8.0+commit.c7dfd78e.Emscripten.clang"
  },
  "schemaVersion": "3.4.16",
  "updatedAt": "2024-05-24T08:42:03.711Z",
  "networkType": "ethereum",
  "devdoc": {
    "kind": "dev",
    "methods": {},
    "version": 1
  },
  "userdoc": {
    "kind": "user",
    "methods": {},
    "version": 1
  }
}